S00B000044494F2E737265633D
S11300000C942A000C9434000C9434000C943400A6
S11300100C9434000C9434000C9434000C9434008C
S11300200C9434000C9434000C9434000C9434007C
S11300300C9434000C9434000C9434000C9434006C
S11300400C9434000C9434000C9434000C9434005C
S11300500C94340011241FBECFE5D8E0DEBFCDBF21
S11300600E946E010C94B9010C940000413319F103
S1130070843409F46FC090F48234D9F108F056C086
S1130080813409F071C02AB381E090E001C0880F87
S11300906A95EAF7809582238ABB0895823649F1EE
S11300A018F4813681F30895833609F43FC0843609
S11300B009F450C00895843409F443C078F48234B8
S11300C011F158F5813449F42AB381E090E001C07C
S11300D0880F6A95EAF7822BDFCF0895823699F06C
S11300E018F4813689F308958336B9F0843649F1DA
S11300F0089527B381E090E001C0880F6A95EAF77C
S11301008095822308C027B381E090E001C0880F66
S11301106A95EAF7822B87BB089524B381E090E0C7
S113012001C0880F6A95EAF7822B09C024B381E0E5
S113013090E001C0880F6A95EAF78095822384BB1A
S1130140089521B381E090E001C0880F6A95EAF731
S1130150822B09C021B381E090E001C0880F6A9529
S1130160EAF78095822381BB0895843481F130F4C9
S11301708234C9F010F5813461F00895823699F023
S113018018F4813631F008958336B9F08436F9F0E5
S113019008952BB381E090E001C0880F6A95EAF7D7
S11301A0822B8BBB089528B381E090E001C0880FB7
S11301B06A95EAF7822B88BB089525B381E090E025
S11301C001C0880F6A95EAF7822B85BB089522B394
S11301D081E090E001C0880F6A95EAF7822B82BB28
S11301E00895843499F130F48234D1F020F58134C7
S11301F061F008958236A1F018F4813631F0089543
S11302008336C9F0843611F108952BB381E090E070
S113021001C0880F6A95EAF7809582238BBB089505
S113022028B381E090E001C0880F6A95EAF78095D1
S1130230822388BB089525B381E090E001C0880F34
S11302406A95EAF78095822385BB089522B381E0FD
S113025090E001C0880F6A95EAF78095822382BBFB
S1130260089541E30C9436008434C1F030F48234B0
S113027089F090F4813461F00895823659F018F4CD
S1130280813631F00895833639F0843639F0089593
S113029081E405C082E403C083E401C084E40C94D7
S11302A0B5008434C1F030F4823489F090F48134A0
S11302B061F00895823659F018F4813631F00895CA
S11302C0833639F0843639F0089581E405C082E438
S11302D003C083E401C084E40C94F100C0E0D0E0E6
S11302E0BE0181E40E943101BE0182E40E94310119
S11302F0BE0183E40E943101BE0184E40E94310105
S11303002196C830D10561F7D1E0C1E4D13020F0A5
S1130310D53020F0D930C8F0D1E0C1E400E010E0DD
S1130320B8018C2F0E9434012FEF84E39CE021500C
S113033080409040E1F700C000000F5F1F4F08307D
S1130340110571F7CF5FDF5FE1CFC53409F4C4E471
S1130350D7E06D2F70E08C2F0E9451012FEF84E3C2
S11303609CE0215080409040E1F700C00000D15053
S1090370F0CFF894FFCF6A
S9030000FC
