:100000000C94BA000C94CF000C94CF000C94CF0049
:100010000C94CF000C94CF000C94CF000C94CF0024
:100020000C94CF000C94CF000C94CF000C94CF0014
:100030000C94CF000C94CF000C94CF000C94CF0004
:100040000C94CF000C94CF000C94CF000C94CF00F4
:100050000C94CF0001011A0133014C0164016401C9
:100060006401640164016401640164016401640168
:100070006401640164016401640164016401640158
:100080006401640164016401640164016401640148
:100090006401640101011A0133014C0170017B010B
:1000A000860191019B019B019B019B019B019B018F
:1000B0009B019B019B019B019B019B019B019B0160
:1000C0009B019B019B019B019B019B019B019B0150
:1000D0009B019B019B019B019B019B0170017B018B
:1000E00086019101A901B001B701BE01C401C4019B
:1000F000C401C401C401C401C401C401C401C401D8
:10010000C401C401C401C401C401C401C401C401C7
:10011000C401C401C401C401C401C401C401C401B7
:10012000C401C401A901B001B701BE01D001DC01C5
:10013000E801F401FF01FF01FF01FF01FF01FF01E1
:10014000FF01FF01FF01FF01FF01FF01FF01FF01AF
:10015000FF01FF01FF01FF01FF01FF01FF01FF019F
:10016000FF01FF01FF01FF01FF01FF01D001DC01E1
:10017000E801F40111241FBECFE5D8E0DEBFCDBFFA
:1001800010E0A0E6B0E0E4EAF9E002C005900D92CC
:10019000A836B107D9F70E94D7020C94D0040C946A
:1001A000000086B1806886B987B1806187B987B160
:1001B000806487B987B1806887B986B1826086B963
:1001C00086B1846086B9089586B1806486B936990F
:1001D000FECF24B185B190E0982F8827822B089517
:1001E000413311F421E001C020E090E0FC01E15432
:1001F000F109E432F10508F067C0E65DFF4F0C94A9
:10020000BB04222359F02AB381E090E002C0880F9A
:10021000991F6A95E2F7822B8ABB08952AB381E081
:1002200090E002C0880F991F6A95E2F780958223BB
:100230008ABB0895222359F027B381E090E002C0E1
:10024000880F991F6A95E2F7822B87BB089527B321
:1002500081E090E002C0880F991F6A95E2F78095CF
:10026000822387BB0895222359F024B381E090E0D4
:1002700002C0880F991F6A95E2F7822B84BB08950C
:1002800024B381E090E002C0880F991F6A95E2F7DD
:100290008095822384BB0895222359F021B381E005
:1002A00090E002C0880F991F6A95E2F7822B81BB0C
:1002B000089521B381E090E002C0880F991F6A95EC
:1002C000E2F78095822381BB089590E0FC01E15420
:1002D000F109E432F10578F5E25BFF4F0C94BB04C1
:1002E0002BB381E090E002C0880F991F6A95E2F776
:1002F000822B8BBB089528B381E090E002C0880F69
:10030000991F6A95E2F7822B88BB089525B381E097
:1003100090E002C0880F991F6A95E2F7822B85BB97
:10032000089522B381E090E002C0880F991F6A957A
:10033000E2F7822B82BB08956295607F90E0FC011A
:10034000E154F109E432F105F8F4EE58FF4F0C9452
:10035000BB048BB38F708BBB8BB3682B6BBB0895C7
:1003600088B38F7088BB88B3682B68BB089585B34A
:100370008F7085BB85B3682B65BB089582B38F7082
:1003800082BB82B3682B62BB089590E0FC01E1540C
:10039000F109E432F10598F5EA56FF4F0C94BB04DD
:1003A0002BB381E090E002C0880F991F6A95E2F7B5
:1003B000809582238BBB089528B381E090E002C032
:1003C000880F991F6A95E2F78095822388BB08956C
:1003D00025B381E090E002C0880F991F6A95E2F78B
:1003E0008095822385BB089522B381E090E002C00E
:1003F000880F991F6A95E2F78095822382BB089542
:1004000060E070E082E40E9465018FE99FE001975F
:10041000F1F700C0000060E070E082E40E94C501D6
:100420008FE99FE00197F1F700C000000895CF9396
:10043000C82F682F62956F7084E40E949C0161E070
:1004400070E082E40E94C5010E9400028FEC97E0F8
:100450000197F1F700C000006C2F84E40E949C011A
:1004600061E070E082E40E94C5010E9400028FEC0E
:1004700097E00197F1F700C00000CF9108952FEFAA
:1004800081EE94E0215080409040E1F700C00000F0
:1004900041E364E070E084E40E94F00041E365E041
:1004A00070E084E40E94F00041E366E070E084E4E0
:1004B0000E94F00041E367E070E084E40E94F000F5
:1004C00041E361E070E082E40E94F00041E360E01B
:1004D00070E082E40E94F00082E00E9417028FE147
:1004E0009EE40197F1F700C0000088E20E94170225
:1004F0008FEC97E00197F1F700C000008CE00E94BC
:1005000017028FEC97E00197F1F700C0000081E03F
:100510000E9417028FE19EE40197F1F700C00000EE
:1005200086E00E9417020895CF93C82F682F629526
:100530006F7084E40E949C0161E070E082E40E949C
:1005400065010E9400026C2F84E40E949C0161E01E
:1005500070E082E40E9465010E9400028FEC97E047
:100560000197F1F700C00000CF910895CF93DF937A
:10057000EC0103C00E949402219688818111FACF78
:10058000DF91CF910895813019F48FE7860F02C073
:100590008FEB860F0E941702089581E00E941702D8
:1005A0008FE19EE40197F1F700C0000008950E94DA
:1005B000CD020E943F020E94D10080E690E00E949E
:1005C000B6020E94E400BC0180E090E00E94C003FB
:1005D00020E030E040E250E40E9426040E949103B3
:1005E000683E43E0740708F045C028EE33E0261B60
:1005F000370BADECBCEC0E94C1048C01169507953D
:10060000169507951695079568E081E00E94C3024C
:100610008DE20E9494020A3070F480E3800F0E9401
:1006200094028FED0E94940283E40E94940280E27F
:100630000E949402C6CFCDEC0C9FC12D1124C6950B
:10064000C695C69580E38C0F0E949402CC0F8C2F28
:10065000880F880FC80F802F8C1B805D0E9494022A
:100660008FED0E94940283E40E94940280E20E9433
:100670009402A7CF693E43E0740708F441C09B0190
:10068000285E3340ADECBCEC0E94C1048C01169591
:100690000795169507951695079568E081E00E94E5
:1006A000C3020A3070F480E3800F0E9494028FED41
:1006B0000E94940283E40E94940280E20E949402C9
:1006C00080CFCDEC0C9FC12D1124C695C695C69543
:1006D00080E38C0F0E949402CC0F8C2F880F880F20
:1006E000C80F802F8C1B805D0E9494028FED0E94AA
:1006F000940283E40E94940280E20E94940261CFFB
:1007000068E081E00E94C30280E30E9494028FEDC2
:100710000E94940283E40E94940280E20E94940268
:1007200050CF0E94050488F09F5798F0B92F992761
:10073000B751B0F0E1F0660F771F881F991F1AF0CC
:10074000BA95C9F714C0B13091F00E941F04B1E00E
:1007500008950C941F04672F782F8827B85F39F00D
:10076000B93FCCF3869577956795B395D9F73EF465
:1007700090958095709561957F4F8F4F9F4F08950D
:10078000E89409C097FB3EF490958095709561952B
:100790007F4F8F4F9F4F9923A9F0F92F96E9BB27E1
:1007A0009395F695879577956795B795F111F8CF5D
:1007B000FAF4BB0F11F460FF1BC06F5F7F4F8F4FC8
:1007C0009F4F16C0882311F096E911C0772321F0BE
:1007D0009EE8872F762F05C0662371F096E8862F56
:1007E00070E060E02AF09A95660F771F881FDAF7AD
:1007F000880F9695879597F9089557FD9058440F5F
:10080000551F59F05F3F71F04795880F97FB991F6F
:1008100061F09F3F79F0879508951216130614062C
:10082000551FF2CF4695F1DF08C0161617061806B9
:10083000991FF1CF86957105610508940895E89494
:10084000BB2766277727CB0197F908950E943904C3
:100850000C94AA040E949C0438F00E94A30420F087
:10086000952311F00C9493040C94990411240C9486
:1008700020040E94FD0370F3959FC1F3950F50E093
:10088000551F629FF001729FBB27F00DB11D639F42
:10089000AA27F00DB11DAA1F649F6627B00DA11DE8
:1008A000661F829F2227B00DA11D621F739FB00D8E
:1008B000A11D621F839FA00D611D221F749F3327FE
:1008C000A00D611D231F849F600D211D822F762F97
:1008D0006A2F11249F5750409AF0F1F088234AF074
:1008E000EE0FFF1FBB1F661F771F881F91505040E0
:1008F000A9F79E3F510580F00C9493040C942004BA
:100900005F3FE4F3983ED4F3869577956795B79566
:10091000F795E7959F5FC1F7FE2B880F911D969580
:10092000879597F9089597F99F6780E870E060E0F0
:1009300008959FEF80EC089500240A941616170678
:1009400018060906089500240A94121613061406C0
:1009500005060895092E0394000C11F4882352F023
:10096000BB0F40F4BF2B11F460FF04C06F5F7F4FDB
:100970008F4F9F4F0895EE0FFF1F0590F491E02DCC
:100980000994A29FB001B39FC001A39F700D811D68
:100990001124911DB29F700D811D1124911D089588
:0409A000F894FFCFF9
:0809A40074656D70203D200018
:00000001FF
