S00B00004144432E7372656351
S11300000C94C9000C94D3000C94D3000C94D3002A
S11300100C94D3000C94D3000C94D3000C94D30010
S11300200C94D3000C94D3000C94D3000C94D30000
S11300300C94D3000C94D3000C94D3000C94D300F0
S11300400C94D3000C94D3000C94D3000C94D300E0
S11300500C94D300F7000F010F010F010F010F01E2
S11300600F010F010F010F010F010F010F010F010C
S11300700F010F010F010F010F010F010F010F01FC
S11300800F010F010F010F010F010F010F010F01EC
S11300900F010F010F010F010F010F010F010F01DC
S11300A00F010F010F010F010F010F01E400E80020
S11300B0EC00F3000F01FE00050147016001790126
S11300C09201AA01AA01AA01AA01AA01AA01AA01EC
S11300D0AA01AA01AA01AA01AA01AA01AA01AA01C4
S11300E0AA01AA01AA01AA01AA01AA01AA01AA01B4
S11300F0AA01AA01AA01AA01AA0147016001790182
S11301009201BB01BD01BF01C101C201C201C20113
S1130110C201C201C201C201C201C201C201C201C3
S1130120C201C201C201C201C201C201C201C201B3
S1130130C201C201C201C201C201C201C201C201A3
S1130140C201BB01BD01BF01C101CE01D001D20179
S1130150D401D501D501D501D501D501D501D501EC
S1130160D501D501D501D501D501D501D501D501DB
S1130170D501D501D501D501D501D501D501D501CB
S1130180D501D501D501D501D501CE01D001D201CA
S1130190D40111241FBECFE5D8E0DEBFCDBF0E943D
S11301A0D6010C94F1010C940000E82F86B180680C
S11301B086B98E2F90E0FC013597E333F10578F58D
S11301C0E65DFF4F0C94EB0187B1816087B928C0CD
S11301D087B1826087B924C087B1816087B987B14C
S11301E0826087B91DC087B1846087B919C087B19F
S11301F0816087B987B1846087B912C087B1826092
S113020087B987B1846087B90BC087B1816087B92A
S113021087B1826087B987B1846087B901C017B894
S113022087B18F7D87B987B1806487B987B18F77AC
S113023087B9643319F0683329F0089586B1826070
S113024086B9089586B1816086B986B1826086B91F
S1130250089586B1806486B93699FECF24B185B1FC
S113026030E8839FC0011124822B0895413311F497
S113027021E001C020E090E0FC01E154F109E43206
S1130280F10508F067C0E35AFF4F0C94EB012223F9
S113029059F02AB381E090E002C0880F991F6A9553
S11302A0E2F7822B8ABB08952AB381E090E002C072
S11302B0880F991F6A95E2F7809582238ABB089577
S11302C0222359F027B381E090E002C0880F991FE0
S11302D06A95E2F7822B87BB089527B381E090E00B
S11302E002C0880F991F6A95E2F78095822387BB25
S11302F00895222359F024B381E090E002C0880FCE
S1130300991F6A95E2F7822B84BB089524B381E098
S113031090E002C0880F991F6A95E2F780958223C6
S113032084BB0895222359F021B381E090E002C0F8
S1130330880F991F6A95E2F7822B81BB089521B338
S113034081E090E002C0880F991F6A95E2F78095DA
S1130350822381BB0895613311F42FEF01C020E0A3
S113036090E0FC01E154F109E432F10558F4EF574F
S1130370FF4F0C94EB012ABB089527BB089524BBBF
S1130380089521BB089590E0FC01E154F109E432A1
S1130390F10558F4EB55FF4F0C94EB016BBB08953A
S11303A068BB089565BB089562BB089540E360E0AF
S11303B070E081E40E94360164E380E30E94D5008A
S11303C061E384E40E94AB010E942901682F84E464
S11303D00E94C301F9CFEE0FFF1F0590F491E02DA9
S10903E00994F894FFCF1C
S9030000FC
