:100000000C94BA000C94C4000C94C4000C94C4006A
:100010000C94C4000C94C4000C94C4000C94C40050
:100020000C94C4000C94C4000C94C4000C94C40040
:100030000C94C4000C94C4000C94C4000C94C40030
:100040000C94C4000C94C4000C94C4000C94C40020
:100050000C94C400D700F000090122013A013A01D2
:100060003A013A013A013A013A013A013A013A01B8
:100070003A013A013A013A013A013A013A013A01A8
:100080003A013A013A013A013A013A013A013A0198
:100090003A013A01D700F00009012201460151015D
:1000A0005C016701710171017101710171017101DF
:1000B00071017101710171017101710171017101B0
:1000C00071017101710171017101710171017101A0
:1000D00071017101710171017101710146015101DB
:1000E0005C0167017F0186018D0194019A019A01EB
:1000F0009A019A019A019A019A019A019A019A0128
:100100009A019A019A019A019A019A019A019A0117
:100110009A019A019A019A019A019A019A019A0107
:100120009A019A017F0186018D019401A601B20115
:10013000BE01CA01D501D501D501D501D501D50131
:10014000D501D501D501D501D501D501D501D501FF
:10015000D501D501D501D501D501D501D501D501EF
:10016000D501D501D501D501D501D501A601B20131
:10017000BE01CA0111241FBECFE5D8E0DEBFCDBF4E
:100180000E94C4020C9409030C940000413311F442
:1001900021E001C020E090E0FC01E154F109E432EB
:1001A000F10508F067C0E65DFF4F0C9403032223BE
:1001B00059F02AB381E090E002C0880F991F6A9538
:1001C000E2F7822B8ABB08952AB381E090E002C057
:1001D000880F991F6A95E2F7809582238ABB08955C
:1001E000222359F027B381E090E002C0880F991FC5
:1001F0006A95E2F7822B87BB089527B381E090E0F0
:1002000002C0880F991F6A95E2F78095822387BB09
:100210000895222359F024B381E090E002C0880FB2
:10022000991F6A95E2F7822B84BB089524B381E07D
:1002300090E002C0880F991F6A95E2F780958223AB
:1002400084BB0895222359F021B381E090E002C0DD
:10025000880F991F6A95E2F7822B81BB089521B31D
:1002600081E090E002C0880F991F6A95E2F78095BF
:10027000822381BB089590E0FC01E154F109E4324E
:10028000F10578F5E25BFF4F0C9403032BB381E09B
:1002900090E002C0880F991F6A95E2F7822B8BBB12
:1002A000089528B381E090E002C0880F991F6A95F5
:1002B000E2F7822B88BB089525B381E090E002C06D
:1002C000880F991F6A95E2F7822B85BB089522B3A8
:1002D00081E090E002C0880F991F6A95E2F7822BB7
:1002E00082BB08956295607F90E0FC01E154F109C2
:1002F000E432F105F8F4EE58FF4F0C9403038BB38E
:100300008F708BBB8BB3682B6BBB089588B38F70DA
:1003100088BB88B3682B68BB089585B38F7085BB95
:1003200085B3682B65BB089582B38F7082BB82B39F
:10033000682B62BB089590E0FC01E154F109E432BE
:10034000F10598F5EA56FF4F0C9403032BB381E0B7
:1003500090E002C0880F991F6A95E2F7809582238A
:100360008BBB089528B381E090E002C0880F991FED
:100370006A95E2F78095822388BB089525B381E0D2
:1003800090E002C0880F991F6A95E2F7809582235A
:1003900085BB089522B381E090E002C0880F991FC9
:1003A0006A95E2F78095822382BB08959B01AC0198
:1003B00060E072E18AE790E00E94E102DA01C9019F
:1003C0004097A109B109B695A7959795879580B9EA
:1003D00011B8089584EA86BF06B607FEFDCF81B145
:1003E000887F8830E1F7089583B986B7806886BF33
:1003F00006B607FEFDCF81B1887F8034E1F708950E
:1004000084E986BF089584E886BF06B607FEFDCF5F
:1004100081B1887F8835E1F783B1089560E070E0AD
:1004200082E40E943B018FE99FE00197F1F700C051
:10043000000060E070E082E40E949B018FE99FE091
:100440000197F1F700C000000895CF93C82F682FDF
:1004500062956F7081E40E94720161E070E082E455
:100460000E949B010E940E028FEC97E00197F1F72A
:1004700000C000006C2F81E40E94720161E070E016
:1004800082E40E949B010E940E028FEC97E001978C
:10049000F1F700C00000CF9108952FEF81EE94E0B6
:1004A000215080409040E1F700C0000041E364E04B
:1004B00070E081E40E94C60041E365E070E081E401
:1004C0000E94C60041E366E070E081E40E94C6003D
:1004D00041E367E070E081E40E94C60041E361E02F
:1004E00070E082E40E94C60041E360E070E082E4D4
:1004F0000E94C60082E00E9425028FE19EE40197DF
:10050000F1F700C0000088E20E9425028FEC97E01E
:100510000197F1F700C000008EE00E9425028FECE9
:1005200097E00197F1F700C0000081E00E942502EA
:100530008FE19EE40197F1F700C0000086E00E9481
:1005400025020895CF93C82F682F62956F7081E4BC
:100550000E94720161E070E082E40E943B010E940F
:100560000E026C2F81E40E94720161E070E082E46F
:100570000E943B010E940E028FEC97E00197F1F779
:1005800000C00000CF9108950E944D0260E573EC19
:1005900080E090E00E94D6012FEF84E39CE02150A0
:1005A00080409040E1F700C000000E94EA0181EE27
:1005B0000E94F4010E9403020E94A2020E94000213
:1005C000EBCFA1E21A2EAA1BBB1BFD010DC0AA1F77
:1005D000BB1FEE1FFF1FA217B307E407F50720F0AC
:1005E000A21BB30BE40BF50B661F771F881F991F27
:1005F0001A9469F760957095809590959B01AC0170
:10060000BD01CF010895EE0FFF1F0590F491E02D7D
:060610000994F894FFCFED
:00000001FF
