:100000000C94BA000C94C4000C94C4000C94C4006A
:100010000C94C4000C94C4000C94C4000C94C40050
:100020000C94C4000C94C4000C94C4000C94C40040
:100030000C94C4000C94C4000C94C4000C94C40030
:100040000C94C4000C94C4000C94C4000C94C40020
:100050000C94C400D700F000090122013A013A01D2
:100060003A013A013A013A013A013A013A013A01B8
:100070003A013A013A013A013A013A013A013A01A8
:100080003A013A013A013A013A013A013A013A0198
:100090003A013A01D700F00009012201460151015D
:1000A0005C016701710171017101710171017101DF
:1000B00071017101710171017101710171017101B0
:1000C00071017101710171017101710171017101A0
:1000D00071017101710171017101710146015101DB
:1000E0005C0167017F0186018D0194019A019A01EB
:1000F0009A019A019A019A019A019A019A019A0128
:100100009A019A019A019A019A019A019A019A0117
:100110009A019A019A019A019A019A019A019A0107
:100120009A019A017F0186018D019401A601B20115
:10013000BE01CA01D501D501D501D501D501D50131
:10014000D501D501D501D501D501D501D501D501FF
:10015000D501D501D501D501D501D501D501D501EF
:10016000D501D501D501D501D501D501A601B20131
:10017000BE01CA0111241FBECFE5D8E0DEBFCDBF4E
:100180000E94A3020C94B3020C940000413311F4BA
:1001900021E001C020E090E0FC01E154F109E432EB
:1001A000F10508F067C0E65DFF4F0C94AD02222315
:1001B00059F02AB381E090E002C0880F991F6A9538
:1001C000E2F7822B8ABB08952AB381E090E002C057
:1001D000880F991F6A95E2F7809582238ABB08955C
:1001E000222359F027B381E090E002C0880F991FC5
:1001F0006A95E2F7822B87BB089527B381E090E0F0
:1002000002C0880F991F6A95E2F78095822387BB09
:100210000895222359F024B381E090E002C0880FB2
:10022000991F6A95E2F7822B84BB089524B381E07D
:1002300090E002C0880F991F6A95E2F780958223AB
:1002400084BB0895222359F021B381E090E002C0DD
:10025000880F991F6A95E2F7822B81BB089521B31D
:1002600081E090E002C0880F991F6A95E2F78095BF
:10027000822381BB089590E0FC01E154F109E4324E
:10028000F10578F5E25BFF4F0C94AD022BB381E0F2
:1002900090E002C0880F991F6A95E2F7822B8BBB12
:1002A000089528B381E090E002C0880F991F6A95F5
:1002B000E2F7822B88BB089525B381E090E002C06D
:1002C000880F991F6A95E2F7822B85BB089522B3A8
:1002D00081E090E002C0880F991F6A95E2F7822BB7
:1002E00082BB08956295607F90E0FC01E154F109C2
:1002F000E432F105F8F4EE58FF4F0C94AD028BB3E5
:100300008F708BBB8BB3682B6BBB089588B38F70DA
:1003100088BB88B3682B68BB089585B38F7085BB95
:1003200085B3682B65BB089582B38F7082BB82B39F
:10033000682B62BB089590E0FC01E154F109E432BE
:10034000F10598F5EA56FF4F0C94AD022BB381E00E
:1003500090E002C0880F991F6A95E2F7809582238A
:100360008BBB089528B381E090E002C0880F991FED
:100370006A95E2F78095822388BB089525B381E0D2
:1003800090E002C0880F991F6A95E2F7809582235A
:1003900085BB089522B381E090E002C0880F991FC9
:1003A0006A95E2F78095822382BB089582B9089509
:1003B00084EC86BF06B607FEFDCF81B1887F80360C
:1003C000E1F786B7806886BF06B607FEFDCF81B12C
:1003D000887F8038E1F783B1089560E070E082E4BF
:1003E0000E943B018FE99FE00197F1F700C00000F8
:1003F00060E070E082E40E949B018FE99FE001973A
:10040000F1F700C000000895CF93C82F682F6295C0
:100410006F7081E40E94720161E070E082E40E94EA
:100420009B010E94ED018FEC97E00197F1F700C06E
:1004300000006C2F81E40E94720161E070E082E4B0
:100440000E949B010E94ED018FEC97E00197F1F76C
:1004500000C00000CF9108952FEF81EE94E021506D
:1004600080409040E1F700C0000041E364E070E0AC
:1004700081E40E94C60041E365E070E081E40E94EF
:10048000C60041E366E070E081E40E94C60041E3FB
:1004900067E070E081E40E94C60041E361E070E043
:1004A00082E40E94C60041E360E070E082E40E94C2
:1004B000C60082E00E9404028FE19EE40197F1F7FA
:1004C00000C0000088E20E9404028FEC97E00197D0
:1004D000F1F700C000008EE00E9404028FEC97E06C
:1004E0000197F1F700C0000081E00E9404028FE153
:1004F0009EE40197F1F700C0000086E00E9404022C
:100500000895CF93C82F682F62956F7081E40E9481
:10051000720161E070E082E40E943B010E94ED0103
:100520006C2F81E40E94720161E070E082E40E941D
:100530003B010E94ED018FEC97E00197F1F700C0BD
:100540000000CF91089580EE0E94D6010E942C02F7
:100550000E94D8010E948102FBCFEE0FFF1F059081
:0A056000F491E02D0994F894FFCF08
:00000001FF
