:100000000C94BA000C94CF000C94CF000C94CF0049
:100010000C94CF000C94CF000C94CF000C94CF0024
:100020000C94CF000C94CF000C94CF000C94CF0014
:100030000C94CF000C94CF000C94CF000C94CF0004
:100040000C94CF000C94CF000C94CF000C94CF00F4
:100050000C94CF00E200FB0014012D014501450185
:100060004501450145014501450145014501450160
:100070004501450145014501450145014501450150
:100080004501450145014501450145014501450140
:1000900045014501E200FB0014012D0151015C0105
:1000A000670172017C017C017C017C017C017C0187
:1000B0007C017C017C017C017C017C017C017C0158
:1000C0007C017C017C017C017C017C017C017C0148
:1000D0007C017C017C017C017C017C0151015C0183
:1000E000670172018A01910198019F01A501A50193
:1000F000A501A501A501A501A501A501A501A501D0
:10010000A501A501A501A501A501A501A501A501BF
:10011000A501A501A501A501A501A501A501A501AF
:10012000A501A5018A01910198019F01B101BD01BD
:10013000C901D501E001E001E001E001E001E001D9
:10014000E001E001E001E001E001E001E001E001A7
:10015000E001E001E001E001E001E001E001E00197
:10016000E001E001E001E001E001E001B101BD01D9
:10017000C901D50111241FBECFE5D8E0DEBFCDBF38
:1001800010E0A0E6B0E0E2E4F6E002C005900D92D7
:10019000A03DB107D9F70E94B8020C941F030C943C
:1001A0000000413311F421E001C020E090E0FC01A7
:1001B000E154F109E432F10508F067C0E65DFF4F54
:1001C0000C941903222359F02AB381E090E002C075
:1001D000880F991F6A95E2F7822B8ABB08952AB38C
:1001E00081E090E002C0880F991F6A95E2F7809540
:1001F00082238ABB0895222359F027B381E090E03F
:1002000002C0880F991F6A95E2F7822B87BB089579
:1002100027B381E090E002C0880F991F6A95E2F74A
:100220008095822387BB0895222359F024B381E06F
:1002300090E002C0880F991F6A95E2F7822B84BB79
:10024000089524B381E090E002C0880F991F6A9559
:10025000E2F78095822384BB0895222359F021B3CD
:1002600081E090E002C0880F991F6A95E2F7822B27
:1002700081BB089521B381E090E002C0880F991FEF
:100280006A95E2F78095822381BB089590E0FC0196
:10029000E154F109E432F10578F5E25BFF4F0C948B
:1002A00019032BB381E090E002C0880F991F6A9573
:1002B000E2F7822B8BBB089528B381E090E002C067
:1002C000880F991F6A95E2F7822B88BB089525B3A2
:1002D00081E090E002C0880F991F6A95E2F7822BB7
:1002E00085BB089522B381E090E002C0880F991F7A
:1002F0006A95E2F7822B82BB08956295607F90E059
:10030000FC01E154F109E432F105F8F4EE58FF4F35
:100310000C9419038BB38F708BBB8BB3682B6BBBA7
:10032000089588B38F7088BB88B3682B68BB089525
:1003300085B38F7085BB85B3682B65BB089582B389
:100340008F7082BB82B3682B62BB089590E0FC0182
:10035000E154F109E432F10598F5EA56FF4F0C94A7
:1003600019032BB381E090E002C0880F991F6A95B2
:10037000E2F7809582238BBB089528B381E090E05B
:1003800002C0880F991F6A95E2F78095822388BB87
:10039000089525B381E090E002C0880F991F6A9507
:1003A000E2F78095822385BB089522B381E090E037
:1003B00002C0880F991F6A95E2F78095822382BB5D
:1003C000089560E070E082E40E9446018FE99FE0BA
:1003D0000197F1F700C0000060E070E082E40E9445
:1003E000A6018FE99FE00197F1F700C00000089592
:1003F000CF93C82F682F62956F7084E40E947D01AF
:1004000061E070E082E40E94A6010E94E1018FECAD
:1004100097E00197F1F700C000006C2F84E40E9480
:100420007D0161E070E082E40E94A6010E94E1018A
:100430008FEC97E00197F1F700C00000CF9108958D
:100440002FEF81EE94E0215080409040E1F700C012
:10045000000041E364E070E084E40E94D10041E3E5
:1004600065E070E084E40E94D10041E366E070E062
:1004700084E40E94D10041E367E070E084E40E94DC
:10048000D10041E361E070E082E40E94D10041E3E9
:1004900060E070E082E40E94D10082E00E94F801F6
:1004A0008FE19EE40197F1F700C0000088E20E940E
:1004B000F8018FEC97E00197F1F700C000008EE0A3
:1004C0000E94F8018FEC97E00197F1F700C000005F
:1004D00081E00E94F8018FE19EE40197F1F700C0EE
:1004E000000086E00E94F8010895CF93C82F682F7E
:1004F00062956F7084E40E947D0161E070E082E4A7
:100500000E9446010E94E1016C2F84E40E947D015B
:1005100061E070E082E40E9446010E94E1018FECFC
:1005200097E00197F1F700C00000CF910895CF93B5
:10053000DF93EC0103C00E9475022196888181112E
:10054000FACFDF91CF910895813019F48FE7860FAC
:1005500002C08FEB860F0E94F801089581E00E948F
:10056000F8018FE19EE40197F1F700C000000895C3
:100570000E94200280E690E00E9497022FEF89E619
:1005800098E1215080409040E1F700C000000E94B7
:10059000AE0280E790E00E94970261E082E00E9454
:1005A000A4028CE790E00E9497022FEF8DE399E47C
:1005B000215080409040E1F700C000000E94AE0250
:1005C00061E081E00E94A4028EE890E00E94970220
:1005D00061E082E00E94A4028FE990E00E9497020D
:1005E0002FEF8DE399E4215080409040E1F700C067
:1005F00000000E94AE0261E081E00E94A4028EEA47
:1006000090E00E94970261E082E00E94A4028EEBDB
:1006100090E00E9497022FEF89E698E121508040F8
:100620009040E1F700C000000E94AE0280E090E040
:100630000895EE0FFF1F0590F491E02D0994F894B2
:02064000FFCFEA
:10064200202020202048454C4C4F202020202000F4
:10065200546869732069732074686500466972730F
:1006620074204C43442070726F6A65637400446561
:1006720076656C6F70656420627920454E47002074
:1006820041686D6564204875737369656E00205416
:1006920068616E6B20796F7520666F722000202072
:1006A20020207761746368696E6720202020000033
:00000001FF
