S00E00006B65797061642E7372656398
S11300000C9402010C9417010C9417010C94170121
S11300100C9417010C9417010C9417010C941701FC
S11300200C9417010C9417010C9417010C941701EC
S11300300C9417010C9417010C9417010C941701DC
S11300400C9417010C9417010C9417010C941701CC
S11300500C9417012A0143015C0175018D018D0186
S11300608D018D018D018D018D018D018D018D011C
S11300708D018D018D018D018D018D018D018D010C
S11300808D018D018D018D018D018D018D018D01FC
S11300908D018D012A0143015C0175019901A401BF
S11300A0AF01BA01C401C401C401C401C401C40143
S11300B0C401C401C401C401C401C401C401C40114
S11300C0C401C401C401C401C401C401C401C40104
S11300D0C401C401C401C401C401C4019901A4013F
S11300E0AF01BA01D201D901E001E701ED01ED014F
S11300F0ED01ED01ED01ED01ED01ED01ED01ED018C
S1130100ED01ED01ED01ED01ED01ED01ED01ED017B
S1130110ED01ED01ED01ED01ED01ED01ED01ED016B
S1130120ED01ED01D201D901E001E701F901050278
S113013011021D022802280228022802280228028D
S1130140280228022802280228022802280228025B
S1130150280228022802280228022802280228024B
S1130160280228022802280228022802F90105028E
S113017011021D02350249025D02710285028502E7
S11301808502850285028502850285028502850233
S11301908502850285028502850285028502850223
S11301A08502850285028502850285028502850213
S11301B085028502350249025D0271029802B1028C
S11301C0CA02E302FB02FB02FB02FB02FB02FB028C
S11301D0FB02FB02FB02FB02FB02FB02FB02FB0233
S11301E0FB02FB02FB02FB02FB02FB02FB02FB0223
S11301F0FB02FB02FB02FB02FB02FB029802B102C0
S1130200CA02E30211241FBECFE5D8E0DEBFCDBF92
S113021010E0A0E6B0E0E4EEF8E002C005900D9234
S1130220A037B107D9F70E944E040C9470040C94C3
S11302300000413311F421E001C020E090E0FC0112
S1130240E154F109E432F10508F067C0E65DFF4FBF
S11302500C946A04222359F02AB381E090E002C08E
S1130260880F991F6A95E2F7822B8ABB08952AB3F7
S113027081E090E002C0880F991F6A95E2F78095AB
S113028082238ABB0895222359F027B381E090E0AA
S113029002C0880F991F6A95E2F7822B87BB0895E5
S11302A027B381E090E002C0880F991F6A95E2F7B6
S11302B08095822387BB0895222359F024B381E0DB
S11302C090E002C0880F991F6A95E2F7822B84BBE5
S11302D0089524B381E090E002C0880F991F6A95C5
S11302E0E2F78095822384BB0895222359F021B339
S11302F081E090E002C0880F991F6A95E2F7822B93
S113030081BB089521B381E090E002C0880F991F5A
S11303106A95E2F78095822381BB089590E0FC0101
S1130320E154F109E432F10578F5E25BFF4F0C94F6
S11303306A042BB381E090E002C0880F991F6A958C
S1130340E2F7822B8BBB089528B381E090E002C0D2
S1130350880F991F6A95E2F7822B88BB089525B30D
S113036081E090E002C0880F991F6A95E2F7822B22
S113037085BB089522B381E090E002C0880F991FE5
S11303806A95E2F7822B82BB08956295607F90E0C4
S1130390FC01E154F109E432F105F8F4EE58FF4FA1
S11303A00C946A048BB38F708BBB8BB3682B6BBBC1
S11303B0089588B38F7088BB88B3682B68BB089591
S11303C085B38F7085BB85B3682B65BB089582B3F5
S11303D08F7082BB82B3682B62BB089590E0FC01EE
S11303E0E154F109E432F10598F5EA56FF4F0C9413
S11303F06A042BB381E090E002C0880F991F6A95CC
S1130400E2F7809582238BBB089528B381E090E0C6
S113041002C0880F991F6A95E2F78095822388BBF2
S1130420089525B381E090E002C0880F991F6A9572
S1130430E2F78095822385BB089522B381E090E0A2
S113044002C0880F991F6A95E2F78095822382BBC8
S1130450089590E0FC01E154F109E432F10508F05B
S113046054C0E654FF4F0C946A0449B381E090E011
S11304709C01062E02C0220F331F0A94E2F7842F38
S113048090E08223932302C0959587956A95E2F7BD
S1130490089546B381E090E09C01062E02C0220F2D
S11304A0331F0A94E2F7842F90E08223932302C03F
S11304B0959587956A95E2F7089543B381E090E0B6
S11304C09C01062E02C0220F331F0A94E2F7842FE8
S11304D090E08223932302C0959587956A95E2F76D
S11304E0089540B381E090E09C01062E02C0220FE3
S11304F0331F0A94E2F7842F90E08223932302C0EF
S1130500959587956A95E2F7089580E008954133BB
S113051011F421E001C020E090E0FC01E154F10974
S1130520E432F10508F067C0E252FF4F0C946A040C
S1130530222359F02BB381E090E002C0880F991F69
S11305406A95E2F7822B8BBB08952BB381E090E090
S113055002C0880F991F6A95E2F7809582238BBBAE
S11305600895222359F028B381E090E002C0880F57
S1130570991F6A95E2F7822B88BB089528B381E01E
S113058090E002C0880F991F6A95E2F78095822354
S113059088BB0895222359F025B381E090E002C07E
S11305A0880F991F6A95E2F7822B85BB089525B3BE
S11305B081E090E002C0880F991F6A95E2F7809568
S11305C0822385BB0895222359F022B381E090E071
S11305D002C0880F991F6A95E2F7822B82BB0895A7
S11305E022B381E090E002C0880F991F6A95E2F778
S11305F08095822382BB08950F931F93CF93C0E00D
S113060007C06C2F70E041E384E40E941901CF5FBE
S1130610C430B8F3C4E00DC00C2F10E040E3B801BF
S113062084E40E94190141E3B80184E40E94870232
S1130630CF5FC83088F3CF911F910F910895BF9277
S1130640CF92DF92EF92FF920F931F93CF93DF939A
S1130650CDB7DEB760970FB6F894DEBF0FBECDBF3F
S113066080E1E0E6F0E0DE01119601900D928A95BA
S1130670E1F70F2EFAE5BF2EF02D00E03CC060E05C
S113068070E084E40E948E0161E070E084E40E94E2
S11306908E0162E070E084E40E948E0163E070E009
S11306A084E40E948E01C02ED12CB60184E40E9401
S11306B0EE0110E01AC0E12EF12CB7016C5F7F4F00
S11306C084E40E94290281110FC0CC0CDD1CCC0CE7
S11306D0DD1C81E090E08C0F9D1FC80ED91EF60131
S11306E0EE0DFF1DB08003C01F5F143020F39AE5A8
S11306F0B91203C00F5F043010F28B2D60960FB651
S1130700F894DEBF0FBECDBFDF91CF911F910F9143
S1130710FF90EF90DF90CF90BF90089560E070E07D
S113072082E40E948E018FE99FE00197F1F700C0F7
S1130730000060E070E082E40E94EE018FE99FE037
S11307400197F1F700C000000895CF93C82F682FD8
S113075062956F7081E40E94C50161E070E082E4FB
S11307600E94EE010E948E038FEC97E00197F1F74F
S113077000C000006C2F81E40E94C50161E070E0BC
S113078082E40E94EE010E948E038FEC97E00197B1
S1130790F1F700C00000CF9108952FEF81EE94E0AF
S11307A0215080409040E1F700C0000041E364E044
S11307B070E081E40E94190141E365E070E081E4A6
S11307C00E94190141E366E070E081E40E9419018E
S11307D041E367E070E081E40E94190141E361E0D4
S11307E070E082E40E94190141E360E070E082E479
S11307F00E94190182E00E94A5038FE19EE4019703
S1130800F1F700C0000088E20E94A5038FEC97E096
S11308100197F1F700C000008EE00E94A5038FEC61
S113082097E00197F1F700C0000081E00E94A50362
S11308308FE19EE40197F1F700C0000086E00E947A
S1130840A5030895CF93C82F682F62956F7081E434
S11308500E94C50161E070E082E40E948E010E9462
S11308608E036C2F81E40E94C50161E070E082E494
S11308700E948E010E948E038FEC97E00197F1F79E
S113088000C00000CF91089581E00E94A5038FE18C
S11308909EE40197F1F700C0000008950E94CD0383
S11308A00E94FC020E941F03C82F833611F40E9489
S11308B04404CA3529F0C33619F08C2F0E9422044F
S11308C02FEF81EE94E0215080409040E1F700C08A
S11308D00000E8CFEE0FFF1F0590F491E02D09947E
S10708E0F894FFCFB6
S11308E43738392F3435362A3132332D63303D2BA2
S9030000FC
