:100000000C9479000C9496000C9496000C94960035
:100010000C9496000C9496000C9496000C94960008
:100020000C9496000C9496000C945A010C94960033
:100030000C9496000C9496000C9496000C949600E8
:100040000C9496000C9496000C9496000C949600D8
:100050000C949600A900C200DB00F4000C010C0116
:100060000C010C010C010C010C010C010C010C0128
:100070000C010C010C010C010C010C010C010C0118
:100080000C010C010C010C010C010C010C010C0108
:100090000C010C01A900C200DB00F40018012301CF
:1000A0002E0139014301430143014301430143014F
:1000B0004301430143014301430143014301430120
:1000C0004301430143014301430143014301430110
:1000D000430143014301430143014301180123014B
:1000E0002E0139017E01820186018D019101980165
:1000F0009F0111241FBECFE5D8E0DEBFCDBF10E0C9
:10010000A0E6B0E0E2E6F3E002C005900D92A03672
:10011000B107D9F720E0A0E6B0E001C01D92A136FA
:10012000B207E1F70E9444010C94AF010C94000067
:10013000413311F421E001C020E090E0FC01E154E2
:10014000F109E432F10508F067C0E65DFF4F0C9459
:10015000A901222359F02AB381E090E002C0880F60
:10016000991F6A95E2F7822B8ABB08952AB381E032
:1001700090E002C0880F991F6A95E2F7809582236C
:100180008ABB0895222359F027B381E090E002C092
:10019000880F991F6A95E2F7822B87BB089527B3D2
:1001A00081E090E002C0880F991F6A95E2F7809580
:1001B000822387BB0895222359F024B381E090E085
:1001C00002C0880F991F6A95E2F7822B84BB0895BD
:1001D00024B381E090E002C0880F991F6A95E2F78E
:1001E0008095822384BB0895222359F021B381E0B6
:1001F00090E002C0880F991F6A95E2F7822B81BBBD
:10020000089521B381E090E002C0880F991F6A959C
:10021000E2F78095822381BB089590E0FC01E154D0
:10022000F109E432F10578F5E25BFF4F0C94A90186
:100230002BB381E090E002C0880F991F6A95E2F726
:1002400082278BBB089528B381E090E002C0880F1D
:10025000991F6A95E2F7822788BB089525B381E04C
:1002600090E002C0880F991F6A95E2F7822785BB4C
:10027000089522B381E090E002C0880F991F6A952B
:10028000E2F7822782BB089541E360E070E081E4F9
:100290000E94980065E08EE40E946B0180916000EE
:1002A0008436E0F360E070E081E40E940D0110927A
:1002B0006000F4CF1F920F920FB60F9211248F930C
:1002C000809160008F5F809360008F910F900FBED0
:1002D0000F901F901895789499B7926099BF8CBF32
:1002E00083B7886083BF862F90E0FC013197E730A9
:1002F000F10570F5EE58FF4F0C94A90183B78160AA
:1003000083BF089583B7826083BF089583B78160F8
:1003100083BF83B7826083BF089583B7846083BF40
:10032000089583B7816083BF83B7846083BF0895D6
:1003300083B7826083BF83B7846083BF089583B728
:10034000816083BF83B7826083BF83B7846083BFCC
:100350000895EE0FFF1F0590F491E02D0994F89495
:02036000FFCFCD
:00000001FF
