S0140000536166655F50726F6A6563742E737265635B
S11300000C9402010C9417010C9417010C94170121
S11300100C9417010C9417010C9417010C941701FC
S11300200C9417010C9417010C9417010C941701EC
S11300300C9417010C9417010C9417010C941701DC
S11300400C9417010C9417010C9417010C941701CC
S11300500C9417012A0143015C0175018D018D0186
S11300608D018D018D018D018D018D018D018D011C
S11300708D018D018D018D018D018D018D018D010C
S11300808D018D018D018D018D018D018D018D01FC
S11300908D018D012A0143015C0175019901A401BF
S11300A0AF01BA01C401C401C401C401C401C40143
S11300B0C401C401C401C401C401C401C401C40114
S11300C0C401C401C401C401C401C401C401C40104
S11300D0C401C401C401C401C401C4019901A4013F
S11300E0AF01BA01D201D901E001E701ED01ED014F
S11300F0ED01ED01ED01ED01ED01ED01ED01ED018C
S1130100ED01ED01ED01ED01ED01ED01ED01ED017B
S1130110ED01ED01ED01ED01ED01ED01ED01ED016B
S1130120ED01ED01D201D901E001E701F901050278
S113013011021D022802280228022802280228028D
S1130140280228022802280228022802280228025B
S1130150280228022802280228022802280228024B
S1130160280228022802280228022802F90105028E
S113017011021D02350249025D02710285028502E7
S11301808502850285028502850285028502850233
S11301908502850285028502850285028502850223
S11301A08502850285028502850285028502850213
S11301B085028502350249025D0271029802B1028C
S11301C0CA02E302FB02FB02FB02FB02FB02FB028C
S11301D0FB02FB02FB02FB02FB02FB02FB02FB0233
S11301E0FB02FB02FB02FB02FB02FB02FB02FB0223
S11301F0FB02FB02FB02FB02FB02FB029802B102C0
S1130200CA02E30211241FBECFE5D8E0DEBFCDBF92
S113021010E0A0E6B0E0E8E2FCE002C005900D9238
S1130220A03FB107D9F70E9429050C9412060C943B
S11302300000413311F421E001C020E090E0FC0112
S1130240E154F109E432F10508F067C0E65DFF4FBF
S11302500C940C06222359F02AB381E090E002C0EA
S1130260880F991F6A95E2F7822B8ABB08952AB3F7
S113027081E090E002C0880F991F6A95E2F78095AB
S113028082238ABB0895222359F027B381E090E0AA
S113029002C0880F991F6A95E2F7822B87BB0895E5
S11302A027B381E090E002C0880F991F6A95E2F7B6
S11302B08095822387BB0895222359F024B381E0DB
S11302C090E002C0880F991F6A95E2F7822B84BBE5
S11302D0089524B381E090E002C0880F991F6A95C5
S11302E0E2F78095822384BB0895222359F021B339
S11302F081E090E002C0880F991F6A95E2F7822B93
S113030081BB089521B381E090E002C0880F991F5A
S11303106A95E2F78095822381BB089590E0FC0101
S1130320E154F109E432F10578F5E25BFF4F0C94F6
S11303300C062BB381E090E002C0880F991F6A95E8
S1130340E2F7822B8BBB089528B381E090E002C0D2
S1130350880F991F6A95E2F7822B88BB089525B30D
S113036081E090E002C0880F991F6A95E2F7822B22
S113037085BB089522B381E090E002C0880F991FE5
S11303806A95E2F7822B82BB08956295607F90E0C4
S1130390FC01E154F109E432F105F8F4EE58FF4FA1
S11303A00C940C068BB38F708BBB8BB3682B6BBB1D
S11303B0089588B38F7088BB88B3682B68BB089591
S11303C085B38F7085BB85B3682B65BB089582B3F5
S11303D08F7082BB82B3682B62BB089590E0FC01EE
S11303E0E154F109E432F10598F5EA56FF4F0C9413
S11303F00C062BB381E090E002C0880F991F6A9528
S1130400E2F7809582238BBB089528B381E090E0C6
S113041002C0880F991F6A95E2F78095822388BBF2
S1130420089525B381E090E002C0880F991F6A9572
S1130430E2F78095822385BB089522B381E090E0A2
S113044002C0880F991F6A95E2F78095822382BBC8
S1130450089590E0FC01E154F109E432F10508F05B
S113046054C0E654FF4F0C940C0649B381E090E06D
S11304709C01062E02C0220F331F0A94E2F7842F38
S113048090E08223932302C0959587956A95E2F7BD
S1130490089546B381E090E09C01062E02C0220F2D
S11304A0331F0A94E2F7842F90E08223932302C03F
S11304B0959587956A95E2F7089543B381E090E0B6
S11304C09C01062E02C0220F331F0A94E2F7842FE8
S11304D090E08223932302C0959587956A95E2F76D
S11304E0089540B381E090E09C01062E02C0220FE3
S11304F0331F0A94E2F7842F90E08223932302C0EF
S1130500959587956A95E2F7089580E008954133BB
S113051011F421E001C020E090E0FC01E154F10974
S1130520E432F10508F067C0E252FF4F0C940C0668
S1130530222359F02BB381E090E002C0880F991F69
S11305406A95E2F7822B8BBB08952BB381E090E090
S113055002C0880F991F6A95E2F7809582238BBBAE
S11305600895222359F028B381E090E002C0880F57
S1130570991F6A95E2F7822B88BB089528B381E01E
S113058090E002C0880F991F6A95E2F78095822354
S113059088BB0895222359F025B381E090E002C07E
S11305A0880F991F6A95E2F7822B85BB089525B3BE
S11305B081E090E002C0880F991F6A95E2F7809568
S11305C0822385BB0895222359F022B381E090E071
S11305D002C0880F991F6A95E2F7822B82BB0895A7
S11305E022B381E090E002C0880F991F6A95E2F778
S11305F08095822382BB08958EBB6DBB8CB38460CF
S11306008CBB8CB382608CBBE199FECF08958EBB0A
S11306108CB381608CBB8DB308950F931F93CF93DC
S1130620C0E007C06C2F70E041E384E40E9419012C
S1130630CF5FC430B8F3C4E00DC00C2F10E040E32A
S1130640B80184E40E94190141E3B80184E40E94E2
S11306508702CF5FC83088F3CF911F910F9108951F
S1130660BF92CF92DF92EF92FF920F931F93CF939B
S1130670DF93CDB7DEB760970FB6F894DEBF0FBE39
S1130680CDBF80E1E0E6F0E0DE01119601900D922D
S11306908A95E1F70F2EFAE5BF2EF02D00E03CC05D
S11306A060E070E084E40E948E0161E070E084E424
S11306B00E948E0162E070E084E40E948E0163E097
S11306C070E084E40E948E01C02ED12CB60184E433
S11306D00E94EE0110E01AC0E12EF12CB7016C5F0C
S11306E07F4F84E40E94290281110FC0CC0CDD1CD1
S11306F0CC0CDD1C81E090E08C0F9D1FC80ED91E30
S1130700F601EE0DFF1DB08003C01F5F143020F30F
S11307109AE5B91203C00F5F043010F28B2D609676
S11307200FB6F894DEBF0FBECDBFDF91CF911F91FE
S11307300F91FF90EF90DF90CF90BF90089560E00D
S113074070E082E40E948E018FE99FE00197F1F747
S113075000C0000060E070E082E40E94EE018FE9D6
S11307609FE00197F1F700C000000895CF93C82FD0
S1130770682F62956F7081E40E94C50161E070E0AA
S113078082E40E94EE010E949F038FEC97E00197A0
S1130790F1F700C000006C2F81E40E94C50161E004
S11307A070E082E40E94EE010E949F038FEC97E0C8
S11307B00197F1F700C00000CF9108952FEF81EE6B
S11307C094E0215080409040E1F700C0000041E3F4
S11307D064E070E081E40E94190141E365E070E0A7
S11307E081E40E94190141E366E070E081E40E9423
S11307F0190141E367E070E081E40E94190141E3DB
S113080061E070E082E40E94190141E360E070E07D
S113081082E40E94190182E00E94B6038FE19EE403
S11308200197F1F700C0000088E20E94B6038FEC44
S113083097E00197F1F700C000008EE00E94B60334
S11308408FEC97E00197F1F700C0000081E00E946F
S1130850B6038FE19EE40197F1F700C0000086E043
S11308600E94B6030895CF93C82F682F62956F70C6
S113087081E40E94C50161E070E082E40E948E017F
S11308800E949F036C2F81E40E94C50161E070E027
S113089082E40E948E010E949F038FEC97E00197EF
S11308A0F1F700C00000CF910895CF93DF93EC01DE
S11308B003C00E943304219688818111FACFDF910D
S11308C0CF910895813019F48FE7860F02C08FEB22
S11308D0860F0E94B603089581E00E94B6038FE15B
S11308E09EE40197F1F700C000000895CF93DF93D1
S11308F02FEF84E39CE0215080409040E1F700C05A
S113090000000E946C0480E790E00E945504D0E04F
S11309102AC080E090E00E9407038F3F19F50E94EF
S11309203003C82F8A35D9F30E9433042FEF86E1B0
S113093091E1215080409040E1F700C000006AE05E
S11309406D0F81E00E9462048AE20E9433046BE02E
S11309506D0F81E00E9462048D2F90E06C2F019650
S11309600E94FC02DF5FD430A0F260E080E090E0FF
S11309700E94FC020E946C04DF91CF910895CF93F2
S1130980DF9361E070E081E60E948E0160E070E038
S113099081E40E94EE0162E070E081E40E94EE01D5
S11309A00E946C048AE790E00E94550461E082E0B2
S11309B00E9462048BE890E00E945504D4E127C0B1
S11309C065E082E00E946204CDECDC9FC12D11241D
S11309D0C695C695C69580E38C0F0E943304CC0F50
S11309E08C2F880F880FC80F8D2F8C1B805D0E9461
S11309F0330480E990E00E945504D1502FEF89E63A
S1130A0098E1215080409040E1F700C00000D111EE
S1130A10D7CFDF91CF9108950E946C0485E990E0CF
S1130A200E94550461E082E00E94620485EA90E03D
S1130A300E9455040E9430038A35E1F3813339F46E
S1130A406FEF80E090E00E94FC0281E3089580E370
S1130A500895EF92FF920F931F93CF93DF9300D0EB
S1130A6000D0CDB7DEB70E94DE030E940D0341E340
S1130A7060E070E081E40E94190141E361E070E00C
S1130A8081E40E94190141E362E070E081E40E9484
S1130A90190180E090E00E9407038F3F11F40E9447
S1130AA076040F2EF5E0FF2EF02DEE24E394A3C080
S1130AB060E070E081E40E948E0161E070E081E416
S1130AC00E94EE0162E070E081E40E94EE01F11008
S1130AD018C00E94BF040E940C05813339F40E949F
S1130AE076040F2EF5E0FF2EF02D0BC00E946C044F
S1130AF02FEF84E39CE0215080409040E1F700C058
S1130B00000085EB90E00E94550400E025C00E949F
S1130B103003182F8A35D9F30E9433042FEF86E16E
S1130B2091E1215080409040E1F700C000006CE06A
S1130B30600F81E00E9462048AE20E9433046DE047
S1130B40600F81E00E946204E1E0F0E0EC0FFD1F21
S1130B50E00FF11D10830F5F0430C8F20E946C0493
S1130B60198181E090E00E940703181332C01A81B2
S1130B7082E090E00E94070318132BC01B8183E0DE
S1130B8090E00E940703181324C01C8184E090E0C5
S1130B900E94070318131DC081EC90E00E945504C5
S1130BA061E082E00E94620482ED90E00E945504BC
S1130BB062E070E081E40E948E0160E070E081E414
S1130BC00E94EE0161E070E081E40E94EE01E12CFC
S1130BD012C0FA940E946C0481EE90E00E945504C5
S1130BE02FEF83ED90E3215080409040E1F700C067
S1130BF000000E946C0421E0E21609F459CF80E061
S1130C0090E00F900F900F900F90DF91CF911F9174
S1130C100F91FF90EF900895EE0FFF1F0590F49150
S10B0C20E02D0994F894FFCFC4
S1130C283738392F3435362A3132332D63303D2B5A
S1130C3873657420706173733A0053616665206943
S1130C4873206C6F636B65643A2000666F722000D2
S1130C5820736563005265736574205061737377FC
S1130C686F72643F005945533A2031202020204EAA
S1130C784F3A203200636865636B20506173733A9E
S1130C880070617373776F7264206973207472756E
S1130C98650053616665206973206F70656E6564CD
S1130CA80077726F6E672070617373776F72640078
S9030000FC
