S01700005265616C5F54696D655F436C6F636B2E7372656350
S11300000C944A010C9467010C9467010C946701E9
S11300100C9467010C941D070C9467010C94670100
S11300200C9467010C9467010C9467010C946701AC
S11300300C9467010C9467010C9467010C9467019C
S11300400C9467010C9467010C9467010C9467018C
S11300500C9467017A019301AC01C501DD01DD0156
S1130060DD01DD01DD01DD01DD01DD01DD01DD019C
S1130070DD01DD01DD01DD01DD01DD01DD01DD018C
S1130080DD01DD01DD01DD01DD01DD01DD01DD017C
S1130090DD01DD017A019301AC01C501EE01F0013E
S11300A0F201F401F501F501F501F501F501F501A0
S11300B0F501F501F501F501F501F501F501F5018C
S11300C0F501F501F501F501F501F501F501F5017C
S11300D0F501F501F501F501F501F501EE01F00178
S11300E0F201F40101020C02170222022C022C027A
S11300F02C022C022C022C022C022C022C022C028C
S11301002C022C022C022C022C022C022C022C027B
S11301102C022C022C022C022C022C022C022C026B
S11301202C022C0201020C021702220238023A02AB
S11301303C023E023F023F023F023F023F023F02B7
S11301403F023F023F023F023F023F023F023F02A3
S11301503F023F023F023F023F023F023F023F0293
S11301603F023F023F023F023F023F0238023A028F
S11301703C023E024C0253025A02610267026702C9
S11301806702670267026702670267026702670223
S11301906702670267026702670267026702670213
S11301A06702670267026702670267026702670203
S11301B0670267024C0253025A02610273027F0211
S11301C08B029702A202A202A202A202A202A2022D
S11301D0A202A202A202A202A202A202A202A202FB
S11301E0A202A202A202A202A202A202A202A202EB
S11301F0A202A202A202A202A202A20273027F022D
S11302008B029702AF02C302D702EB02FF02FF0286
S1130210FF02FF02FF02FF02FF02FF02FF02FF02D2
S1130220FF02FF02FF02FF02FF02FF02FF02FF02C2
S1130230FF02FF02FF02FF02FF02FF02FF02FF02B2
S1130240FF02FF02AF02C302D702EB0212032B0329
S113025044035D0375037503750375037503750323
S113026075037503750375037503750375037503CA
S113027075037503750375037503750375037503BA
S113028075037503750375037503750312032B0357
S113029044035D0311241FBECFE5D8E0DEBFCDBF0C
S11302A010E0A0E6B0E0E0EEFEE002C005900D92A2
S11302B0A43BB107D9F720E0A4EBB0E001C01D9244
S11302C0A63BB207E1F70E94DF040C946E070C947E
S11302D00000413311F421E001C020E090E0FC0172
S11302E0E154F109E432F10508F067C0E65DFF4F1F
S11302F00C946807222359F02AB381E090E002C0ED
S1130300880F991F6A95E2F7822B8ABB08952AB356
S113031081E090E002C0880F991F6A95E2F780950A
S113032082238ABB0895222359F027B381E090E009
S113033002C0880F991F6A95E2F7822B87BB089544
S113034027B381E090E002C0880F991F6A95E2F715
S11303508095822387BB0895222359F024B381E03A
S113036090E002C0880F991F6A95E2F7822B84BB44
S1130370089524B381E090E002C0880F991F6A9524
S1130380E2F78095822384BB0895222359F021B398
S113039081E090E002C0880F991F6A95E2F7822BF2
S11303A081BB089521B381E090E002C0880F991FBA
S11303B06A95E2F78095822381BB0895613311F435
S11303C02FEF01C020E090E0FC01E154F109E43298
S11303D0F10558F4E25BFF4F0C9468072ABB0895BB
S11303E027BB089524BB089521BB089590E0FC0128
S11303F0E154F109E432F10578F5EE58FF4F0C941D
S113040068072BB381E090E002C0880F991F6A95BA
S1130410E2F7822B8BBB089528B381E090E002C001
S1130420880F991F6A95E2F7822B88BB089525B33C
S113043081E090E002C0880F991F6A95E2F7822B51
S113044085BB089522B381E090E002C0880F991F14
S11304506A95E2F7822B82BB089590E0FC01E15497
S1130460F109E432F10558F4EA56FF4F0C94680799
S11304706BBB089568BB089565BB089562BB08957E
S11304806F7090E0FC01E154F109E432F105F8F4F5
S1130490E654FF4F0C9468078BB3807F8BBB8BB300
S11304A0682B6BBB089588B3807F88BB88B3682BA7
S11304B068BB089585B3807F85BB85B3682B65BB16
S11304C0089582B3807F82BB82B3682B62BB089598
S11304D090E0FC01E154F109E432F10598F5E252AF
S11304E0FF4F0C9468072BB381E090E002C0880FA3
S11304F0991F6A95E2F7809582238BBB089528B3F0
S113050081E090E002C0880F991F6A95E2F7809518
S1130510822388BB089525B381E090E002C0880F50
S1130520991F6A95E2F78095822385BB089522B3CB
S113053081E090E002C0880F991F6A95E2F78095E8
S1130540822382BB089590E0FC01E154F109E43276
S1130550F10508F054C0EE5FFE4F0C94680749B3F0
S113056081E090E09C01062E02C0220F331F0A9402
S1130570E2F7842F90E08223932302C09595879518
S11305806A95E2F7089546B381E090E09C01062E57
S113059002C0220F331F0A94E2F7842F90E08223D3
S11305A0932302C0959587956A95E2F7089543B31E
S11305B081E090E09C01062E02C0220F331F0A94B2
S11305C0E2F7842F90E08223932302C095958795C8
S11305D06A95E2F7089540B381E090E09C01062E0D
S11305E002C0220F331F0A94E2F7842F90E0822383
S11305F0932302C0959587956A95E2F7089580E064
S11306000895413311F421E001C020E090E0FC01A1
S1130610E154F109E432F10508F067C0EA5DFE4FE8
S11306200C946807222359F02BB381E090E002C0B8
S1130630880F991F6A95E2F7822B8BBB08952BB321
S113064081E090E002C0880F991F6A95E2F78095D7
S113065082238BBB0895222359F028B381E090E0D4
S113066002C0880F991F6A95E2F7822B88BB089510
S113067028B381E090E002C0880F991F6A95E2F7E1
S11306808095822388BB0895222359F025B381E005
S113069090E002C0880F991F6A95E2F7822B85BB10
S11306A0089525B381E090E002C0880F991F6A95F0
S11306B0E2F78095822385BB0895222359F022B363
S11306C081E090E002C0880F991F6A95E2F7822BBF
S11306D082BB089522B381E090E002C0880F991F85
S11306E06A95E2F78095822382BB08950F931F9346
S11306F0CF93C0E007C06C2F70E041E382E40E9416
S11307006901CF5FC430B8F3C4E00DC00C2F10E012
S113071040E3B80182E40E94690141E3B80182E444
S11307200E940103CF5FC83088F3CF911F910F91CE
S11307300895BF92CF92DF92EF92FF920F931F938F
S1130740CF93DF93CDB7DEB760970FB6F894DEBFD3
S11307500FBECDBF80E1E1E6F0E0DE01119601902D
S11307600D928A95E1F70F2EFAE5BF2EF02D00E0E9
S11307703CC060E070E082E40E94F60161E070E059
S113078082E40E94F60162E070E082E40E94F601D5
S113079063E070E082E40E94F601C02ED12CB60121
S11307A082E40E94680210E01AC0E12EF12CB70125
S11307B06C5F7F4F82E40E94A30281110FC0CC0CB6
S11307C0DD1CCC0CDD1C81E090E08C0F9D1FC80E5D
S11307D0D91EF601EE0DFF1DB08003C01F5F14305B
S11307E020F39AE5B91203C00F5F043010F28B2D89
S11307F060960FB6F894DEBF0FBECDBFDF91CF91E8
S11308001F910F91FF90EF90DF90CF90BF900895CC
S113081066E070E081E40E94F6018FE99FE00197B1
S1130820F1F700C0000066E070E081E40E94680215
S11308308FE99FE00197F1F700C000000895CF937E
S1130840C82F682F62956F7083E40E94400267E0AE
S113085070E081E40E9468020E9408048FEC97E033
S11308600197F1F700C000006C2F83E40E9440025E
S113087067E070E081E40E9468020E9408048FEC43
S113088097E00197F1F700C00000CF9108952FEF92
S113089081EE94E0215080409040E1F700C00000D8
S11308A041E360E070E083E40E94690141E361E0B8
S11308B070E083E40E94690141E362E070E083E454
S11308C00E94690141E363E070E083E40E946901EE
S11308D041E367E070E081E40E94690141E366E07E
S11308E070E081E40E94690182E00E941F048FE1AC
S11308F09EE40197F1F700C0000088E20E941F0403
S11309008FEC97E00197F1F700C000008EE00E94A1
S11309101F048FEC97E00197F1F700C0000081E01D
S11309200E941F048FE19EE40197F1F700C00000CC
S113093086E00E941F040895CF93C82F682F629504
S11309406F7083E40E94400267E070E081E40E94DB
S1130950F6010E9408046C2F83E40E94400267E0C1
S113096070E081E40E94F6010E9408048FEC97E095
S11309700197F1F700C00000CF910895CF93DF9362
S1130980EC0103C00E949C04219688818111FACF56
S1130990DF91CF910895813019F48FE7860F02C05B
S11309A08FEB860F0E941F04089581E00E941F04AC
S11309B08FE19EE40197F1F700C00000089541E340
S11309C060E070E081E40E94690141E361E070E06D
S11309D081E40E94690141E362E070E081E40E94E5
S11309E0690141E363E070E081E40E94690141E34D
S11309F064E070E081E40E94690141E365E070E035
S1130A0081E40E94690184E40E942E070E945A072F
S1130A100E9447048BE790E00E94BE0461E082E0FC
S1130A200E94CB048BE890E00E94BE040E947603EF
S1130A300E949903833609F0AEC060E070E081E45F
S1130A400E94F60161E070E081E40E94F60162E038
S1130A5070E081E40E94F60163E070E081E40E94AA
S1130A60F60164E070E081E40E94F60165E070E064
S1130A7081E40E94F6010E94D5042FEF81EE94E0F8
S1130A80215080409040E1F700C000008AE990E0E6
S1130A900E94BE046AE081E00E94CB040E94990394
S1130AA0C82F8A35D9F30E949C042FE78AE196E087
S1130AB0215080409040E1F700C000008C2F90E06E
S1130AC0C097880FC82FCC0FCC0FD82FDC0F0E94F3
S1130AD09903C82F8A35D9F30E949C042FE78AE131
S1130AE096E0215080409040E1F700C00000CD0F17
S1130AF0C053C09360000E94D5042FEF81EE94E0B0
S1130B00215080409040E1F700C0000086EA90E068
S1130B100E94BE046BE081E00E94CB040E94990312
S1130B20C82F8A35D9F30E949C042FE78AE196E006
S1130B30215080409040E1F700C000008C2F90E0ED
S1130B40C097880FC82FCC0FCC0FD82FDC0F0E9472
S1130B509903C82F8A35D9F30E949C042FE78AE1B0
S1130B6096E0215080409040E1F700C00000CD0F96
S1130B70C053C093B4001092B5000E94D5048BE713
S1130B8090E00E94BE0461E082E00E94CB048BE806
S1130B9090E00E94BE0460E070E081E40E9468027C
S1130BA061E070E081E40E94F60162E070E081E4BB
S1130BB00E94F60163E070E081E40E94F60164E0C3
S1130BC070E081E40E94F60165E070E081E40E9437
S1130BD0F6016091B500CDEC6C9F812D11248695B2
S1130BE086958695880F982F990F990F890F681B02
S1130BF084E40E9432078FE097E20197F1F700C086
S1130C00000061E070E081E40E94680260E070E04E
S1130C1081E40E94F60162E070E081E40E94F60142
S1130C2063E070E081E40E94F60164E070E081E436
S1130C300E94F60165E070E081E40E94F601609193
S1130C40B5006C9F612D112466956695669584E4C4
S1130C500E9432078FE097E20197F1F700C000008D
S1130C608091B4008C3348F49091B5009C3329F4FE
S1130C708F5F8093B4001092B50060E070E081E46F
S1130C800E94F60161E070E081E40E94F60162E0F6
S1130C9070E081E40E94680263E070E081E40E94F5
S1130CA0F60164E070E081E40E94F60165E070E022
S1130CB081E40E94F6016091B400CDEC6C9F812D1B
S1130CC01124869586958695880F982F990F990FEC
S1130CD0890F681B84E40E9432078FE097E2019732
S1130CE0F1F700C0000061E070E081E40E94F601C9
S1130CF060E070E081E40E94F60162E070E081E46B
S1130D000E94F60163E070E081E40E94680264E0FE
S1130D1070E081E40E94F60165E070E081E40E94E5
S1130D20F6016091B4006C9F612D1124669566955F
S1130D30669584E40E9432078FE097E20197F1F709
S1130D4000C0000080916000883148F49091B400A4
S1130D509C3329F48F5F809360001092B40061E0AB
S1130D6070E081E40E94F60160E070E081E40E949A
S1130D70F60162E070E081E40E94F60163E070E055
S1130D8081E40E94F60164E070E081E40E9468025C
S1130D9065E070E081E40E94F60160916000CDECB2
S1130DA06C9F812D1124869586958695880F982FA2
S1130DB0990F990F890F681B84E40E9432078FE012
S1130DC097E20197F1F700C0000061E070E081E470
S1130DD00E94F60160E070E081E40E94F60162E0A6
S1130DE070E081E40E94F60163E070E081E40E9417
S1130DF0F60164E070E081E40E94F60165E070E0D1
S1130E0081E40E946802609160006C9F612D11244E
S1130E1066956695669584E40E9432078FE097E2B2
S1130E200197F1F700C0000080916000883109F05B
S1130E30FFCD81E080936000FBCD1F920F920FB62F
S1130E400F9211248F938091B5008F5F8093B5002A
S1130E508F910F900FBE0F901F90189561E30E9421
S1130E60DE010895CF93DF93CDB7DEB72A970FB68F
S1130E70F894DEBF0FBECDBF6A3008F069E09AE097
S1130E80E1E7F0E0DE01119601900D929A95E1F709
S1130E90E1E0F0E0EC0FFD1FE60FF11D60810E9420
S1130EA02D022A960FB6F894DEBF0FBECDBFDF9198
S1130EB0CF91089582B5886082BD789489B78064A3
S1130EC089BF85B5816085BD85B5846085BD08957C
S1130ED0EE0FFF1F0590F491E02D0994F894FFCFD5
S1130EE0013738392F3435362A3132332D63303DCA
S1130EF02B3F065B4F666D7D477F6F707265737322
S1130F00204F4E20627574746F6E00746F206D6F85
S1130F10646966792074696D6500686F75726573BC
S1130F20203D202D2D006D696E75746573203D2064
S1070F302D2D00005F
S9030000FC
