:100000000C942A000C9434000C9434000C943400AA
:100010000C9434000C9434000C9434000C94340090
:100020000C9434000C9434000C9434000C94340080
:100030000C9434000C9434000C9434000C94340070
:100040000C9434000C9434000C9434000C94340060
:100050000C94340011241FBECFE5D8E0DEBFCDBF25
:100060000E9436000C94C4010C94000060E070E023
:100070008CEB91E40E943D00F9CF21B3206221BBBB
:100080002EB522602EBD21E63BE046EB5BE30E94ED
:10009000570120E030E040EC5FE30E946B0020E07D
:1000A00030E04AE754E40E9457010E94D7007BBD2C
:1000B0006ABD8FB582608FBD8EB588608EBD8EB5EE
:1000C00080618EBD8FE19EE497BD86BD8FB580684F
:1000D0008FBD08955058BB27AA270E9482000C9418
:1000E0001D010E940F0138F00E94160120F039F422
:1000F0009F3F19F426F40C940C010EF4E095E7FBF5
:100100000C940601E92F0E942E0158F3BA176207DA
:1001100073078407950720F079F4A6F50C94500135
:100120000EF4E0950B2EBA2FA02D0B01B901900112
:100130000C01CA01A0011124FF27591B99F0593F56
:1001400050F4503E68F11A16F040A22F232F342F9E
:100150004427585FF3CF469537952795A795F040EC
:100160005395C9F77EF41F16BA0B620B730B840B01
:10017000BAF09150A1F0FF0FBB1F661F771F881FB9
:10018000C2F70EC0BA0F621F731F841F48F4879511
:1001900077956795B795F7959E3F08F0B0CF939503
:1001A000880F08F09927EE0F9795879508950E947C
:1001B000360188F09F5798F0B92F9927B751B0F0C2
:1001C000E1F0660F771F881F991F1AF0BA95C9F7DB
:1001D00014C0B13091F00E945001B1E008950C9428
:1001E0005001672F782F8827B85F39F0B93FCCF3DB
:1001F000869577956795B395D9F73EF49095809558
:10020000709561957F4F8F4F9F4F089597F99F6726
:1002100080E870E060E008959FEF80EC089500248E
:100220000A941616170618060906089500240A945B
:1002300012161306140605060895092E0394000CE1
:1002400011F4882352F0BB0F40F4BF2B11F460FF70
:1002500004C06F5F7F4F8F4F9F4F089557FD905899
:10026000440F551F59F05F3F71F04795880F97FB7A
:10027000991F61F09F3F79F0879508951216130634
:100280001406551FF2CF4695F1DF08C01616170663
:100290001806991FF1CF8695710561050894089598
:1002A000E894BB2766277727CB0197F908950E942A
:1002B0006A010C941D010E940F0138F00E94160182
:1002C00020F0952311F00C9406010C940C011124DC
:1002D0000C9451010E942E0170F3959FC1F3950F6C
:1002E00050E0551F629FF001729FBB27F00DB11DBA
:1002F000639FAA27F00DB11DAA1F649F6627B00D4A
:10030000A11D661F829F2227B00DA11D621F739F32
:10031000B00DA11D621F839FA00D611D221F749F40
:100320003327A00D611D231F849F600D211D822F87
:10033000762F6A2F11249F5750409AF0F1F08823AE
:100340004AF0EE0FFF1FBB1F661F771F881F9150DB
:100350005040A9F79E3F510580F00C9406010C9483
:1003600051015F3FE4F3983ED4F386957795679506
:10037000B795F795E7959F5FC1F7FE2B880F911D05
:0C0380009695879597F90895F894FFCFA3
:00000001FF
