:100000000C94DE000C94F3000C94F3000C94F300B9
:100010000C94F3000C94F3000C94F3000C94F30094
:100020000C94F3000C94F3000C94F3000C94F30084
:100030000C94F3000C94F3000C94F3000C94F30074
:100040000C94F3000C94F3000C94F3000C94F30064
:100050000C94F30006011F01380151016901690187
:100060006901690169016901690169016901690140
:100070006901690169016901690169016901690130
:100080006901690169016901690169016901690120
:100090006901690106011F013801510175018001E3
:1000A0008B019601A001A001A001A001A001A00167
:1000B000A001A001A001A001A001A001A001A00138
:1000C000A001A001A001A001A001A001A001A00128
:1000D000A001A001A001A001A001A0017501800163
:1000E0008B019601AE01B501BC01C301C901C90173
:1000F000C901C901C901C901C901C901C901C901B0
:10010000C901C901C901C901C901C901C901C9019F
:10011000C901C901C901C901C901C901C901C9018F
:10012000C901C901AE01B501BC01C301D501E1019D
:10013000ED01F901040204020402040204020402B3
:10014000040204020402040204020402040204027F
:10015000040204020402040204020402040204026F
:10016000040204020402040204020402D501E101B3
:10017000ED01F90110021B02260231023B023B0293
:100180003B023B023B023B023B023B023B023B0287
:100190003B023B023B023B023B023B023B023B0277
:1001A0003B023B023B023B023B023B023B023B0267
:1001B0003B023B0210021B022602310211241FBE29
:1001C000CFE5D8E0DEBFCDBF10E0A0E6B0E0ECE9BF
:1001D000F7E002C005900D92AA37B107D9F70E9447
:1001E00009030C94CC030C940000413311F421E07A
:1001F00001C020E090E0FC01E154F109E432F10596
:1002000008F067C0E65DFF4F0C94B703222359F056
:100210002AB381E090E002C0880F991F6A95E2F747
:10022000822B8ABB08952AB381E090E002C0880F38
:10023000991F6A95E2F7809582238ABB089522234D
:1002400059F027B381E090E002C0880F991F6A95AA
:10025000E2F7822B87BB089527B381E090E002C0CC
:10026000880F991F6A95E2F78095822387BB0895CE
:10027000222359F024B381E090E002C0880F991F37
:100280006A95E2F7822B84BB089524B381E090E065
:1002900002C0880F991F6A95E2F78095822384BB7C
:1002A0000895222359F021B381E090E002C0880F25
:1002B000991F6A95E2F7822B81BB089521B381E0F3
:1002C00090E002C0880F991F6A95E2F7809582231B
:1002D00081BB089590E0FC01E154F109E432F1059D
:1002E00078F5E25BFF4F0C94B7032BB381E090E00D
:1002F00002C0880F991F6A95E2F7822B8BBB089585
:1003000028B381E090E002C0880F991F6A95E2F758
:10031000822B88BB089525B381E090E002C0880F4E
:10032000991F6A95E2F7822B85BB089522B381E07D
:1003300090E002C0880F991F6A95E2F7822B82BB7A
:1003400008956295607F90E0FC01E154F109E43288
:10035000F105F8F4EE58FF4F0C94B7038BB38F7090
:100360008BBB8BB3682B6BBB089588B38F7088BB36
:1003700088B3682B68BB089585B38F7085BB85B340
:10038000682B65BB089582B38F7082BB82B3682BE4
:1003900062BB089590E0FC01E154F109E432F105FB
:1003A00098F5EA56FF4F0C94B7032BB381E090E029
:1003B00002C0880F991F6A95E2F7809582238BBB54
:1003C000089528B381E090E002C0880F991F6A95D4
:1003D000E2F78095822388BB089525B381E090E001
:1003E00002C0880F991F6A95E2F78095822385BB2A
:1003F000089522B381E090E002C0880F991F6A95AA
:10040000E2F78095822382BB089590E0FC01E154DD
:10041000F109E432F10578F5E654FF4F0C94B70387
:100420002BB381E090E002C0880F991F6A95E2F734
:1004300082278BBB089528B381E090E002C0880F2B
:10044000991F6A95E2F7822788BB089525B381E05A
:1004500090E002C0880F991F6A95E2F7822785BB5A
:10046000089522B381E090E002C0880F991F6A9539
:10047000E2F7822782BB089560E070E082E40E9488
:100480006A018FE99FE00197F1F700C0000060E08A
:1004900070E082E40E94CA018FE99FE00197F1F7C2
:1004A00000C000000895CF93C82F682F62956F7029
:1004B00081E40E94A10161E070E082E40E94CA012F
:1004C0000E943C028FEC97E00197F1F700C000001A
:1004D0006C2F81E40E94A10161E070E082E40E943F
:1004E000CA010E943C028FEC97E00197F1F700C02F
:1004F0000000CF9108952FEF81EE94E021508040CD
:100500009040E1F700C0000041E364E070E081E466
:100510000E94F50041E365E070E081E40E94F5008F
:1005200041E366E070E081E40E94F50041E367E0AA
:1005300070E081E40E94F50041E361E070E082E454
:100540000E94F50041E360E070E082E40E94F50063
:1005500082E00E9453028FE19EE40197F1F700C010
:10056000000088E20E9453028FEC97E00197F1F7B8
:1005700000C000008EE00E9453028FEC97E00197CC
:10058000F1F700C0000081E00E9453028FE19EE479
:100590000197F1F700C0000086E00E945302089521
:1005A000CF93C82F682F62956F7081E40E94A101DC
:1005B00061E070E082E40E946A010E943C026C2FBC
:1005C00081E40E94A10161E070E082E40E946A017E
:1005D0000E943C028FEC97E00197F1F700C0000009
:1005E000CF910895CF93DF93EC0103C00E94D00216
:1005F000219688818111FACFDF91CF91089581E012
:100600000E9453028FE19EE40197F1F700C00000C1
:1006100008950E947B0241E367E070E084E40E9459
:10062000F50041E365E070E082E40E94F50067E0D8
:1006300070E084E40E946A0125E82A95F1F7000041
:1006400067E070E084E40E94CA011FBC80E288BFBA
:1006500081EC8EBD08B605FEFDCF46B557B588B70F
:10066000806288BF81E88EBD08B605FEFDCF26B545
:1006700037B588B7806288BF80E288BF1EBC42174A
:10068000530708F043C0241B350BA8E2B7E80E94CB
:10069000BD0320E034E244EF50E00E94950369017D
:1006A0007A012035310560F50E94FF0280E690E076
:1006B0000E94F2029601ADECBCEC0E94BD03EC017D
:1006C000D695C795D695C795D695C7958C2F805D3D
:1006D0000E94D002CE01880F991FCC0FDD1FCC0FD6
:1006E000DD1FCC0FDD1FC80FD91FC6018C1B9D0B52
:1006F000805D0E94D0028CE690E00E94F20206C06B
:100700000E94FF028FE690E00E94F20265E070E036
:1007100082E40E9405029FEF29E688E19150204083
:100720008040E1F700C0000082CFA1E21A2EAA1B90
:10073000BB1BFD010DC0AA1FBB1FEE1FFF1FA21791
:10074000B307E407F50720F0A21BB30BE40BF50B8E
:10075000661F771F881F991F1A9469F76095709517
:10076000809590959B01AC01BD01CF010895EE0FDE
:10077000FF1F0590F491E02D0994A29FB001B39F53
:10078000C001A39F700D811D1124911DB29F700D9A
:0C079000811D1124911D0895F894FFCFE5
:10079C0064697374616E6365203D2000434D006E87
:0A07AC006F206F626A65637420001D
:00000001FF
