:100000000C943C010C9459010C9459010C94590125
:100010000C9459010C9459010C9459010C945901F8
:100020000C9459010C9459010C9469070C945901D2
:100030000C9459010C9459010C9459010C945901D8
:100040000C9459010C9459010C9459010C945901C8
:100050000C9459017D01950195019501950195013A
:1000600095019501950195019501950195019501E0
:1000700095019501950195019501950195019501D0
:1000800095019501950195019501950195019501C0
:1000900095019501950195019501950195019501B0
:1000A0009501950195019501950195016A016E01F2
:1000B00072017901950184018B01CC01E501FE01FA
:1000C00017022F022F022F022F022F022F022F02C0
:1000D0002F022F022F022F022F022F022F022F0298
:1000E0002F022F022F022F022F022F022F022F0288
:1000F0002F022F022F022F022F02CC01E501FE0159
:1001000017023B02460251025C0266026602660268
:10011000660266026602660266026602660266029F
:10012000660266026602660266026602660266028F
:10013000660266026602660266026602660266027F
:1001400066023B02460251025C0274027B0282029A
:1001500089028F028F028F028F028F028F028F021D
:100160008F028F028F028F028F028F028F028F0207
:100170008F028F028F028F028F028F028F028F02F7
:100180008F028F028F028F028F0274027B02820223
:1001900089029B02A702B302BF02CA02CA02CA02B4
:1001A000CA02CA02CA02CA02CA02CA02CA02CA02EF
:1001B000CA02CA02CA02CA02CA02CA02CA02CA02DF
:1001C000CA02CA02CA02CA02CA02CA02CA02CA02CF
:1001D000CA029B02A702B302BF02D702EB02FF02D0
:1001E00013032703270327032703270327032703D3
:1001F00027032703270327032703270327032703AF
:10020000270327032703270327032703270327039E
:1002100027032703270327032703D702EB02FF0245
:1002200013033A0353036C0385039D039D039D034E
:100230009D039D039D039D039D039D039D039D03BE
:100240009D039D039D039D039D039D039D039D03AE
:100250009D039D039D039D039D039D039D039D039E
:100260009D033A0353036C0385038D07910795079C
:100270009C07A007A707AE0711241FBECFE5D8E053
:10028000DEBFCDBF11E0A0E6B0E0E4EDF1E102C0D9
:1002900005900D92AC32B107D9F721E0ACE2B1E0A4
:1002A00001C01D92AF32B207E1F70E9429070C94FA
:1002B000E8080C940000E82F86B1806886B98E2F7C
:1002C00090E0FC013597E333F10578F5E65DFF4FEB
:1002D0000C94E20887B1816087B928C087B1826039
:1002E00087B924C087B1816087B987B1826087B937
:1002F0001DC087B1846087B919C087B1816087B993
:1003000087B1846087B912C087B1826087B987B12D
:10031000846087B90BC087B1816087B987B182607B
:1003200087B987B1846087B901C017B887B18F7D5D
:1003300087B987B1806487B987B1806887B964332A
:1003400019F0683329F0089586B1826086B908955E
:1003500086B1816086B986B1826086B9089586B11A
:10036000806486B93699FECF24B185B190E0982F8C
:100370008827822B0895413311F421E001C020E049
:1003800090E0FC01E154F109E432F10508F067C0A6
:10039000E35AFF4F0C94E208222359F02AB381E07C
:1003A00090E002C0880F991F6A95E2F7822B8ABB02
:1003B00008952AB381E090E002C0880F991F6A95E2
:1003C000E2F7809582238ABB0895222359F027B350
:1003D00081E090E002C0880F991F6A95E2F7822BB6
:1003E00087BB089527B381E090E002C0880F991F72
:1003F0006A95E2F78095822387BB0895222359F0FE
:1004000024B381E090E002C0880F991F6A95E2F75B
:10041000822B84BB089524B381E090E002C0880F52
:10042000991F6A95E2F78095822384BB0895222361
:1004300059F021B381E090E002C0880F991F6A95BE
:10044000E2F7822B81BB089521B381E090E002C0E6
:10045000880F991F6A95E2F78095822381BB0895E2
:1004600090E0FC01E154F109E432F10578F5EF5731
:10047000FF4F0C94E2082BB381E090E002C0880F9C
:10048000991F6A95E2F7822B8BBB089528B381E010
:1004900090E002C0880F991F6A95E2F7822B88BB13
:1004A000089525B381E090E002C0880F991F6A95F6
:1004B000E2F7822B85BB089522B381E090E002C071
:1004C000880F991F6A95E2F7822B82BB0895629587
:1004D000607F90E0FC01E154F109E432F105F8F4A9
:1004E000EB55FF4F0C94E2088BB38F708BBB8BB333
:1004F000682B6BBB089588B38F7088BB88B3682B5B
:1005000068BB089585B38F7085BB85B3682B65BBC9
:10051000089582B38F7082BB82B3682B62BB08954B
:1005200090E0FC01E154F109E432F10598F5E7535C
:10053000FF4F0C94E2082BB381E090E002C0880FDB
:10054000991F6A95E2F7809582238BBB089528B3A3
:1005500081E090E002C0880F991F6A95E2F78095CC
:10056000822388BB089525B381E090E002C0880F04
:10057000991F6A95E2F78095822385BB089522B37F
:1005800081E090E002C0880F991F6A95E2F780959C
:10059000822382BB089590E0FC01E154F109E4322A
:1005A000F10508F054C0E351FF4F0C94E20849B341
:1005B00081E090E09C01062E02C0220F331F0A94B6
:1005C000E2F7842F90E08223932302C095958795CC
:1005D0006A95E2F7089546B381E090E09C01062E0B
:1005E00002C0220F331F0A94E2F7842F90E0822387
:1005F000932302C0959587956A95E2F7089543B3D2
:1006000081E090E09C01062E02C0220F331F0A9465
:10061000E2F7842F90E08223932302C0959587957B
:100620006A95E2F7089540B381E090E09C01062EC0
:1006300002C0220F331F0A94E2F7842F90E0822336
:10064000932302C0959587956A95E2F7089580E017
:100650000895413311F421E001C020E090E0FC0155
:10066000E154F109E432F10508F067C0EF5EFE4F96
:100670000C94E208222359F02BB381E090E002C0F1
:10068000880F991F6A95E2F7822B8BBB08952BB3D5
:1006900081E090E002C0880F991F6A95E2F780958B
:1006A00082238BBB0895222359F028B381E090E088
:1006B00002C0880F991F6A95E2F7822B88BB0895C4
:1006C00028B381E090E002C0880F991F6A95E2F795
:1006D0008095822388BB0895222359F025B381E0B9
:1006E00090E002C0880F991F6A95E2F7822B85BBC4
:1006F000089525B381E090E002C0880F991F6A95A4
:10070000E2F78095822385BB0895222359F022B316
:1007100081E090E002C0880F991F6A95E2F7822B72
:1007200082BB089522B381E090E002C0880F991F38
:100730006A95E2F78095822382BB08958EBB6DBBDC
:100740008CB384608CBB8CB382608CBBE199FECF90
:1007500008958EBB8CB381608CBB8DB308950F93CD
:100760001F93CF93C0E007C06C2F70E041E382E499
:100770000E94BB01CF5FC430B8F3C4E00DC00C2FA2
:1007800010E040E3B80182E40E94BB0141E3B801FC
:1007900082E40E942903CF5FC83088F3CF911F9174
:1007A0000F910895BF92CF92DF92EF92FF920F9335
:1007B0001F93CF93DF93CDB7DEB760970FB6F89452
:1007C000DEBF0FBECDBF80E1E0E6F0E0DE011196B6
:1007D00001900D928A95E1F70F2EFAE5BF2EF02DCC
:1007E00000E03CC060E070E082E40E94300261E022
:1007F00070E082E40E94300262E070E082E40E94D5
:10080000300263E070E082E40E943002C02ED12CFE
:10081000B60182E40E94900210E01AC0E12EF12C91
:10082000B7016C5F7F4F82E40E94CB0281110FC041
:10083000CC0CDD1CCC0CDD1C81E090E08C0F9D1FEE
:10084000C80ED91EF601EE0DFF1DB08003C01F5F5C
:10085000143020F39AE5B91203C00F5F043010F290
:100860008B2D60960FB6F894DEBF0FBECDBFDF9123
:10087000CF911F910F91FF90EF90DF90CF90BF909D
:10088000089562E070E081E40E9430028FE99FE009
:100890000197F1F700C0000062E070E081E40E947F
:1008A00090028FE99FE00197F1F700C000000895E2
:1008B000CF93C82F682F62956F7081E40E94670202
:1008C00063E070E081E40E9490020E9441048FEC9A
:1008D00097E00197F1F700C000006C2F81E40E94BF
:1008E000670263E070E081E40E9490020E9441048C
:1008F0008FEC97E00197F1F700C00000CF910895C9
:100900002FEF81EE94E0215080409040E1F700C04D
:10091000000041E364E070E081E40E94BB0141E338
:1009200065E070E081E40E94BB0141E366E070E0B5
:1009300081E40E94BB0141E367E070E081E40E9432
:10094000BB0141E363E070E081E40E94BB0141E34D
:1009500062E070E081E40E94BB0182E00E945804E2
:100960008FE19EE40197F1F700C0000088E20E9449
:1009700058048FEC97E00197F1F700C000008EE07B
:100980000E9458048FEC97E00197F1F700C0000037
:1009900081E00E9458048FE19EE40197F1F700C0C6
:1009A000000086E00E9458040895CF93C82F682F56
:1009B00062956F7081E40E94670263E070E081E4F9
:1009C0000E9430020E9441046C2F81E40E94670261
:1009D00063E070E081E40E9430020E9441048FECE9
:1009E00097E00197F1F700C00000CF910895CF93F1
:1009F000DF93EC0103C00E94D50421968881811108
:100A0000FACFDF91CF910895813019F48FE7860FE7
:100A100002C08FEB860F0E945804089581E00E9467
:100A200058048FE19EE40197F1F700C0000008959B
:100A30001F93CF93DF930E940E0580E790E00E9402
:100A4000F70461E082E00E940405D0E03CC00E940F
:100A5000D203C82F2FEF81EE94E0215080409040C8
:100A6000E1F700C00000CA3591F3C33679F46D2F69
:100A700082E00E94040580E20E94D5046D2F82E08E
:100A80000E940405DD23F9F0D1501DC080ED8C0FCC
:100A90008A30C8F48C2F0E94D5048FE19EE4019720
:100AA000F1F700C0000011E01D0F612F82E00E94ED
:100AB00004058AE20E94D5048D2F90E06C2F0196E8
:100AC0000E949E03D12FD43010F260E080E090E0CD
:100AD0000E949E03DF91CF911F9108951F93CF93A2
:100AE000DF930E940E058DE790E00E94F70461E01D
:100AF00082E00E94040511E0D0E041C00E94D203D0
:100B0000C82F2FEF81EE94E0215080409040E1F714
:100B100000C00000CA3591F3C33679F46D2F82E02E
:100B20000E94040580E20E94D5046D2F82E00E949D
:100B30000405DD2321F1D15022C080ED8C0F8A30D5
:100B4000F0F48C2F0E94D5048FE59AEE0197F1F70F
:100B500000C0000011E01D0F612F82E00E9404051B
:100B60008AE20E94D5048D2F90E001960E94A9038D
:100B7000C81719F0D12F10E002C0D12F11E0D430E6
:100B800008F4BCCF812FDF91CF911F910895CF93AF
:100B9000DF93D82F0E940E058CE00E9458048CE849
:100BA00090E00E94F70410922D0124C080912D0145
:100BB000843618F0D15010922D01CDECDC9FC12D60
:100BC0001124C695C695C69580E38C0F0E94D50466
:100BD000CC0F8C2F880F880FC80F8D2F8C1B805D3A
:100BE0000E94D50488E990E00E94F7046CE081E05F
:100BF0000E940405D111DACF8EE00E945804DF91E3
:100C0000CF910895CF93DF9341E367E070E083E4F1
:100C10000E94BB0141E366E070E083E40E94BB01F7
:100C200041E365E070E083E40E94BB0141E364E0DE
:100C300070E083E40E94BB010E940E058CE990E005
:100C40000E94F70461E082E00E9404058DEA90E0D2
:100C50000E94F7040E94D2032FE73AE196E0215068
:100C600030409040E1F700C000008A3599F38233AC
:100C700089F018F4813331F00BC0833329F08433C9
:100C800029F006C0C7E007C0C5E005C0C4E003C046
:100C9000C0E001C0C6E0C11112C00E940E058EEB7B
:100CA00090E00E94F7042FEF39E688E121503040B0
:100CB0008040E1F700C000000E940E05BFCF0E94F7
:100CC0000E05D0E0BE0183E40E94CB02811109C071
:100CD0008BEC90E00E94F70461E082E00E94040542
:100CE0000EC0BE0183E40E94CB02813041F488ED46
:100CF00090E00E94F70461E082E00E94040584EE27
:100D000090E00E94F7040E94D2039FE72AE136E0B8
:100D1000915020403040E1F700C000008A3599F33F
:100D2000813329F4BE0183E40E94300206C082337D
:100D300021F4BE0183E40E949002DF91CF910895D7
:100D4000CF93DF9310922C010E940E0581EF90E06B
:100D50000E94F7046FE081E00E940405D4E622C0FF
:100D60008DECD89FD12D1124D695D695D6950E947D
:100D7000D203C82F2FE78AE196E0215080409040AF
:100D8000E1F700C00000CA3591F38C2F0E94D50412
:100D90008C2F90E0C09790912C01D89F900D11243A
:100DA00090932C01D230E0F62FEF84E39CE02150A9
:100DB00080409040E1F700C00000DF91CF9108959E
:100DC0000E940E0582E091E00E94F70461E082E05B
:100DD0000E9404058BE091E00E94F7040E94AF019D
:100DE000BC0180E090E00E94E70720E030E040E8AE
:100DF0005EE30E944D080E94B80760932E01809127
:100E00002C01861740F4882331F060E070E083E421
:100E10000E94300207C0681728F460E070E083E4A5
:100E20000E9490020E94D2032FE739EA93E02150FA
:100E300030409040E1F700C000008A3579F28133FC
:100E400019F40E9402060895823311F40E94A0064C
:100E500008950E9480040E94AF0340E360E070E0C8
:100E600081E40E94BB0164E380E30E945B0141E3F3
:100E700060E070E083E40E94BB0165E08EE40E94C4
:100E80007A0780E090E00E94A9038F3F11F40E944E
:100E90001805C5E00E946E058130C1F0C11105C082
:100EA00084E10E94C705C5E0F5CF0E940E058DE1E3
:100EB00091E00E94F704C1502FEF89E698E121509C
:100EC00080409040E1F700C00000E4CF0E94E006BF
:100ED000FDCF1F920F920FB60F9211248F93809126
:100EE0002D018F5F80932D018F910F900FBE0F907A
:100EF0001F901895789499B7926099BF8CBF83B76B
:100F0000886083BF862F90E0FC013197E730F105C0
:100F100070F5EB5CFE4F0C94E20883B7816083BFF1
:100F2000089583B7826083BF089583B7816083BFCC
:100F300083B7826083BF089583B7846083BF0895B9
:100F400083B7816083BF83B7846083BF089583B70D
:100F5000826083BF83B7846083BF089583B7816055
:100F600083BF83B7826083BF83B7846083BF0895E4
:100F70000E942C0888F09F5798F0B92F9927B751F5
:100F8000B0F0E1F0660F771F881F991F1AF0BA952D
:100F9000C9F714C0B13091F00E944608B1E008953D
:100FA0000C944608672F782F8827B85F39F0B93F2F
:100FB000CCF3869577956795B395D9F73EF49095E0
:100FC0008095709561957F4F8F4F9F4F0895E8945E
:100FD00009C097FB3EF490958095709561957F4F81
:100FE0008F4F9F4F9923A9F0F92F96E9BB2793952F
:100FF000F695879577956795B795F111F8CFFAF43F
:10100000BB0F11F460FF1BC06F5F7F4F8F4F9F4F6F
:1010100016C0882311F096E911C0772321F09EE8CD
:10102000872F762F05C0662371F096E8862F70E033
:1010300060E02AF09A95660F771F881FDAF7880F0D
:101040009695879597F9089557FD9058440F551F29
:1010500059F05F3F71F04795880F97FB991F61F03A
:101060009F3F79F087950895121613061406551FB1
:10107000F2CF4695F1DF08C0161617061806991F1D
:10108000F1CF86957105610508940895E894BB2712
:1010900066277727CB0197F908950E9460080C9482
:1010A000D1080E94C30838F00E94CA0820F0952396
:1010B00011F00C94BA080C94C00811240C94470841
:1010C0000E94240870F3959FC1F3950F50E0551FBF
:1010D000629FF001729FBB27F00DB11D639FAA278D
:1010E000F00DB11DAA1F649F6627B00DA11D661FDC
:1010F000829F2227B00DA11D621F739FB00DA11DFD
:10110000621F839FA00D611D221F749F3327A00DB6
:10111000611D231F849F600D211D822F762F6A2F52
:1011200011249F5750409AF0F1F088234AF0EE0FB7
:10113000FF1FBB1F661F771F881F91505040A9F7E4
:101140009E3F510580F00C94BA080C9447085F3F0D
:10115000E4F3983ED4F3869577956795B795F79520
:10116000E7959F5FC1F7FE2B880F911D9695879598
:1011700097F9089597F99F6780E870E060E0089517
:101180009FEF80EC089500240A941616170618069F
:101190000906089500240A9412161306140605067B
:1011A0000895092E0394000C11F4882352F0BB0F0C
:1011B00040F4BF2B11F460FF04C06F5F7F4F8F4F6F
:1011C0009F4F0895EE0FFF1F0590F491E02D0994B5
:0411D000F894FFCFC1
:1011D4003738392F3435362A3132332D63303D2BAD
:1011E4007365742070617373776F726400636865EC
:1011F400636B2070617373776F726400737973200B
:10120400706175736564200073656300312D526FDE
:101214006F6D312020322D526F6F6D3200332D529D
:101224006F6F6D332020342D526F6F6D34007772E1
:101234006F6E672063686F696365006C69676874C3
:10124400206973206F6666004C696768742069734F
:10125400204F4E00312D4F4E202020322D4F464638
:101264000054656D7065726174757265203D202D42
:101274002D00312D6C696768742000322D4169722C
:101284005F636F6E646974696F6E65720077726F05
:0C1294006E672070617373776F726400E6
:00000001FF
