:100000000C94DE000C94E8000C94E8000C94E800DA
:100010000C94E8000C94E8000C94E8000C94E800C0
:100020000C94E8000C94E8000C94E8000C94E800B0
:100030000C94E8000C94E8000C94E8000C94E800A0
:100040000C94E8000C94E8000C94E8000C94E80090
:100050000C94E800FA00FC00FE000001010101011F
:100060000101010101010101010101010101010180
:100070000101010101010101010101010101010170
:100080000101010101010101010101010101010160
:1000900001010101FA00FC00FE0000010D01180140
:1000A00023012E01380138013801380138013801A7
:1000B0003801380138013801380138013801380178
:1000C0003801380138013801380138013801380168
:1000D0003801380138013801380138010D011801A3
:1000E00023012E01440150015C0168017301730179
:1000F0007301730173017301730173017301730160
:10010000730173017301730173017301730173014F
:10011000730173017301730173017301730173013F
:1001200073017301440150015C0168018201860181
:100130008A018E0191019101910191019101910139
:10014000910191019101910191019101910191011F
:10015000910191019101910191019101910191010F
:100160009101910191019101910191018201860119
:100170008A018E019D01A101A501A901AC01AC017B
:10018000AC01AC01AC01AC01AC01AC01AC01AC0107
:10019000AC01AC01AC01AC01AC01AC01AC01AC01F7
:1001A000AC01AC01AC01AC01AC01AC01AC01AC01E7
:1001B000AC01AC019D01A101A501A90111241FBE43
:1001C000CFE5D8E0DEBFCDBF0E94AD010C940202A6
:1001D0000C940000613311F42FEF01C020E090E097
:1001E000FC01E154F109E432F10558F4E65DFF4FFA
:1001F0000C94FC012ABB089527BB089524BB0895E5
:1002000021BB089590E0FC01E154F109E432F105CD
:1002100078F5E25BFF4F0C94FC012BB381E090E09A
:1002200002C0880F991F6A95E2F7822B8BBB089555
:1002300028B381E090E002C0880F991F6A95E2F729
:10024000822B88BB089525B381E090E002C0880F1F
:10025000991F6A95E2F7822B85BB089522B381E04E
:1002600090E002C0880F991F6A95E2F7822B82BB4B
:10027000089590E0FC01E154F109E432F10598F5AC
:10028000EE58FF4F0C94FC012BB381E090E002C0CC
:10029000880F991F6A95E2F7809582238BBB08959A
:1002A00028B381E090E002C0880F991F6A95E2F7B9
:1002B0008095822388BB089525B381E090E002C039
:1002C000880F991F6A95E2F78095822385BB089570
:1002D00022B381E090E002C0880F991F6A95E2F78F
:1002E0008095822382BB08950E94EA00089590E0E1
:1002F000FC01E154F109E432F10598F4EA56FF4FAC
:100300000C94FC0181E40E940201089582E40E94A1
:100310000201089583E40E940201089584E40E948A
:100320000201089590E0FC01E154F109E432F10585
:1003300098F4E654FF4F0C94FC0181E40E943901CB
:10034000089582E40E943901089583E40E943901EE
:10035000089584E40E943901089561E381E40E94D4
:10036000740161E382E40E94740161E383E40E940A
:10037000740161E384E40E94740111E0D1E402C0DD
:1003800011E0D1E41130E0F31530A8F01930C8F0D5
:10039000F7CF6C2F0C2E000C770B8D2F0E9477015E
:1003A0002FE788E391E0215080409040E1F700C0C2
:1003B0000000CF5F01C0C0E0C8305CF3DF5F1F5FAB
:1003C000E1CFD53409F4D4E4C7E011C06C2F0C2E72
:1003D000000C770B8D2F0E9492012FE788E391E0AC
:1003E000215080409040E1F700C00000C150CC2374
:1003F0006CF7D1501F5FC6CFEE0FFF1F0590F49131
:08040000E02D0994F894FFCFF0
:00000001FF
